:1000000071C000008EC000008CC000008AC00000DB
:1000100088C0000086C0000084C0000082C00000CC
:1000200080C000007EC000007CC000007AC00000DC
:1000300078C0000076C0000074C0000072C00000EC
:1000400070C000006EC000006CC000006AC00000FC
:1000500068C0000066C0000064C0000062C000000C
:1000600060C000005EC000005CC000005AC000001C
:1000700058C0000056C0000054C0000052C000002C
:1000800050C000004EC000004CC000004AC000003C
:1000900048C0000046C0000044C0000042C000004C
:1000A00040C000003EC000003CC000003AC000005C
:1000B00038C0000036C0000034C0000032C000006C
:1000C00030C000002EC000002CC000002AC000007C
:1000D00028C0000026C0000024C0000022C000008C
:1000E00020C0000011241FBECFEFD1E2DEBFCDBF84
:1000F00000E00CBF13E0A0E0B2E0E4E8F3E000E0D1
:100100000BBF02C007900D92A034B107D9F723E0CE
:10011000A0E4B3E001C01D92A034B207E1F702D021
:100120002FC16ECFCF93DF931F921F92CDB7DEB753
:10013000FDD08FEF81B980930A012CD09A838983F7
:10014000FC01E45CFC4F808182B9BE016F5F7F4F90
:1001500082E390E042D088EE93E0F2D0BE016F5F80
:100160007F4F84E690E039D088EE93E0E9D0BE017D
:100170006F5F7F4F8EEC9FEF30D088EE93E0E0D042
:10018000BE016F5F7F4F8CE99FEF27D088EE93E031
:10019000D7D0DBCFCF93DF934F9903C0C0E0D0E03F
:1001A00017C0C0E0D0E0CE0101968370907899230B
:1001B00024F401978C6F9F6F0196EC01FC01E45CC5
:1001C000FC4F808182B984E190E0BAD04F99EBCFA7
:1001D00012B8CE01DF91CF9108956F927F928F92E6
:1001E0009F92AF92BF92CF92DF92EF92FF920F93C6
:1001F0001F93CF93DF937C013B01DB01CD91DC9119
:10020000992354F4F194E194F1080F2EF0E0CF2EED
:10021000F2E0DF2EF02D06C00F2EF8E0CF2EF2E038
:10022000DF2EF02D1E141F040CF06EC00F2EF8ED03
:100230008F2EF2E09F2EF02D00E112E0C701880F13
:10024000991FFC01E852FD4F5F01C130D10519F142
:100250001CF4209791F03AC0C230D10551F1C3305F
:10026000D105A1F5D601ED91FC911197E45CFC4F0D
:10027000808182B9CD91DC9129C0D6011296ED9191
:10028000FC911397E45CFC4F808182B91296CD916A
:10029000DC9113971BC0D6011496ED91FC91159734
:1002A000E45CFC4F808182B91496CD91DC91159766
:1002B0000DC0D6011696ED91FC911797E45CFC4FAA
:1002C000808182B91696CD91DC911797B2E3EB1637
:1002D000F10429F4F4018081918132D00CC0F4E65C
:1002E000EF16F10429F4D8018D919C9129D003C017
:1002F00084E190E025D0B2E08B0E911C0E5F1F4F81
:100300008A149B0409F0A1CFF301D183C083DF914C
:10031000CF911F910F91FF90EF90DF90CF90BF9002
:10032000AF909F908F907F906F900895E1E6F0E0FE
:1003300080E8808381E0808382E08093810008955B
:10034000AC01E1E8F0E090819860908388EE93E062
:100350009093890080938800109285001092840009
:10036000B19A20E030E005C0B19BFECFB19A2F5F7B
:100370003F4F241735071CF4B19BF6CFF7CF0895F4
:04038000F894FFCF1F
:10038400020003000000010000000100020003005D
:100394002E0013000F000C000B000A0009000900D6
:1003A4000800080007000700070007000600060011
:1003B400060006000600060005000500050005000D
:1003C4000500050005000500050005000500050001
:1003D40005000500050005000500050005000500F1
:1003E40005000500050005000500050005000500E1
:1003F40005000500050005000500050005000500D1
:1004040005000500050005000500050005000500C0
:1004140005000500050005000500050005000500B0
:1004240005000500050005000500050005000500A0
:100434000600060006000600060006000700070086
:100444000700070008000800090009000A000B0063
:100454000D000F0013002E002E0013000F000C00DF
:100464000B000A0009000900080008000700070043
:100474000700070006000600060006000600060046
:100484000500050005000500050005000500050040
:10049400050005000600060006000600060006002A
:1004A400070007000700070008000800090009000A
:1004B4000A000B000D000F0013002E0035362E2D00
:00000001FF
