:1000000071C000008EC000008CC00000EFC1000075
:1000100088C0000086C0000084C0000082C00000CC
:1000200080C000007EC000007CC000007AC00000DC
:1000300078C0000076C0000074C0000072C00000EC
:1000400070C000006EC000006CC000006AC00000FC
:1000500068C0000066C0000064C0000062C000000C
:1000600060C000005EC000005CC000005AC000001C
:1000700058C000000BC2000054C0000052C0000075
:1000800050C000004EC000004CC000004AC000003C
:1000900048C0000046C0000044C0000042C000004C
:1000A00040C000003EC000003CC000003AC000005C
:1000B00038C0000036C0000034C0000032C000006C
:1000C00030C000002EC000002CC000002AC000007C
:1000D00028C0000026C0000024C0000022C000008C
:1000E00020C0000011241FBECFEFD1E2DEBFCDBF84
:1000F00000E00CBF12E0A0E0B2E0ECE8F5E000E0C8
:100100000BBF02C007900D92AE32B107D9F722E0C3
:10011000AEE2B2E001C01D92A233B207E1F7FFD018
:1001200033C26ECF87B1807F87B9459A469882E007
:100130008A95F1F700C0479A92E09A95F1F700C0CE
:1001400086B18295807F92E09A95F1F700C047983A
:1001500095E09A95F1F70000479A92E09A95F1F7A9
:1001600000C096B192E09A95F1F700C0479895E0EB
:100170009A95F1F700008823F4F2459887B18F60D3
:1001800087B90895282F22952F708F70611102C0B2
:10019000469801C0469A92E09A95F1F700C0479AB6
:1001A00098B1907F922B98B995E09A95F1F700005D
:1001B000479895E09A95F1F70000479A98B1907F9B
:1001C000892B88B985E08A95F1F70000479895E07A
:1001D0009A95F1F70000A6CF0895CF93C82F2FEF7F
:1001E00086E791E0215080409040E1F700C0000098
:1001F00087B18F6087B93F9A3E9A3D9A88B1807FD8
:1002000088B947984598469800C000C00000479AB2
:10021000419A25E02A95F1F70000479885E08A95F4
:10022000F1F700007FDF60E08C2F8C60ABDF60E0D7
:1002300088E2A8DFCF910895CF93DF93EC01888106
:10024000882331F0219661E09DDF89918111FBCFF8
:10025000DF91CF910895EF92FF920F931F93CF9369
:10026000DF9300D01F921F92CDB7DEB77B01FE0156
:10027000319625E0DF011D922A95E9F7009751F0AC
:1002800035962AE030E0B90158D18293862F972F16
:100290000097C9F7BFEFEB16FB0669F4898181115E
:1002A0001DC0FE01329600E010E00F5F1F4F8191EC
:1002B0008823D9F30FC005E010E00E191F090AC00A
:1002C000F80181918F0161E0805D5CDF0E151F05F3
:1002D000B9F711C0053011051CF00DC000E010E0A9
:1002E00081E090E08C0F9D1F080F191F7E0196E0A2
:1002F000E90EF11CE5CF0F900F900F900F900F902B
:10030000DF91CF911F910F91FF90EF900895883268
:1003100028F46111806460E0806834CF0895E3D0F0
:100320008FEF80930A0183E084B980910002829567
:10033000880F880F807C80930B0183E04EDF60E0A4
:1003400081E020DF81E092E077DF84EF91E0D5D09B
:1003500060E081E017DF8FE092E06EDF80ED97E0F4
:10036000CCD060E081E00EDF87E192E065DF61E004
:1003700080E0CDDF82E292E05FDF8091000285B90C
:10038000F894EA9AE9E6F0E0808180628083CAE727
:10039000D0E0888180688883888188608883ECE7E2
:1003A000F0E0808180668083789488D08881806442
:1003B00088838091300290913102892BD1F360E0E3
:1003C0008AE0A5DF80912F0263E070E090E043DFD8
:1003D000109231021092300280912F0282D084E17B
:1003E00090E08BD0888180648883E3CF1F920F9246
:1003F0000FB60F9211240BB60F922F933F934F938A
:100400005F936F937F938F939F93AF93BF93EF937C
:10041000FF9384E190E071D090912E0281E08927D2
:1004200080932E029091000283E08927809300023E
:10043000809100028295880F880F807C80930B0149
:1004400015B884E190E059D08091000285B961E04F
:100450008AE05DDF80912E0261E070E090E0FBDEDB
:1004600084E190E04AD0FF91EF91BF91AF919F91CD
:100470008F917F916F915F914F913F912F910F904D
:100480000BBE0F900FBE0F901F9018951F920F92EA
:100490000FB60F9211248F939F93809179008093D0
:1004A0002F0281E090E090933102809330029F917F
:1004B0008F910F900FBE0F901F90189584B5836099
:1004C00084BD85B5877F85BD84B5806884BD84B5CE
:1004D0008F7B84BD85B5826085BD8FE787BD279AF8
:1004E000089587BD0895E1E6F0E080E8808381E02B
:1004F000808382E0809381000895AC01E1E8F0E020
:1005000090819860908388EE93E090938900809327
:1005100088001092850010928400B19A20E030E0AB
:1005200005C0B19BFECFB19A2F5F3F4F241735070F
:100530001CF4B19BF6CFF7CF089597FB072E16F466
:10054000009406D077FD08D00BD007FC05D03EF410
:10055000909581959F4F0895709561957F4F08956F
:10056000AA1BBB1B51E107C0AA1FBB1FA617B707D9
:1005700010F0A61BB70B881F991F5A95A9F78095F5
:0C0580009095BC01CD010895F894FFCFC8
:10058C000150726F6772616D205365747570006CE9
:10059C006F6164696E67004144432056616C7565F8
:0E05AC003A004D6F746F72206469723A30002D
:00000001FF
