:1000000071C000007DC400008AC40000B8C40000B4
:1000100088C0000086C0000036C5000082C0000015
:1000200080C000007EC000007CC000007AC00000DC
:1000300078C0000076C0000074C0000072C00000EC
:1000400070C000006EC000006CC000006AC00000FC
:1000500068C0000066C0000064C0000062C000000C
:1000600060C000005EC000005CC000005AC000001C
:1000700058C000003AC5000054C0000052C0000043
:1000800050C000004EC000004CC000004AC000003C
:1000900048C0000046C0000044C0000042C000004C
:1000A00040C000003EC000003CC000003AC000005C
:1000B00038C0000036C0000034C0000032C000006C
:1000C00030C000002EC000002CC000002AC000007C
:1000D00028C0000026C0000024C0000022C000008C
:1000E00020C0000011241FBECFEFD1E2DEBFCDBF84
:1000F00000E00CBF13E0A0E0B2E0EAEAFEE000E0BE
:100100000BBF02C007900D92A438B107D9F723E0C6
:10011000A4E8B3E001C01D92A239B207E1F713D2FF
:10012000C2C61CC5CF93DF934F9903C0C0E0D0E097
:1001300017C0C0E0D0E0CE0101968370907899237B
:1001400024F401978C6F9F6F0196EC01FC01EA5B30
:10015000FC4F808182B984E190E02ED54F99EBCF9E
:10016000CE01DF91CF9108956F927F928F929F92EF
:10017000AF92BF92CF92DF92EF92FF920F931F93B5
:10018000CF93DF937C013B01DB01CD91DC9199237F
:1001900054F4F194E194F1080F2EF6E0CF2EF2E042
:1001A000DF2EF02D06C00F2EFEE0CF2EF2E0DF2E68
:1001B000F02D1E141F040CF06EC00F2EFEED8F2EBE
:1001C000F2E09F2EF02D06E112E0C701880F991F83
:1001D000FC01E252FD4F5F01C130D10519F11CF461
:1001E000209791F03AC0C230D10551F1C330D1050A
:1001F000A1F5D601ED91FC911197EA5BFC4F80814E
:1002000082B9CD91DC9129C0D6011296ED91FC9175
:100210001397EA5BFC4F808182B91296CD91DC91F5
:1002200013971BC0D6011496ED91FC911597EA5BCC
:10023000FC4F808182B91496CD91DC9115970DC049
:10024000D6011696ED91FC911797EA5BFC4F8081E1
:1002500082B91696CD91DC911797B2E3EB16F104B3
:1002600029F4F40180819181C7D40CC0F4E6EF1623
:10027000F10429F4D8018D919C91BED403C084E18E
:1002800090E09AD4B2E08B0E911C0E5F1F4F8A143F
:100290009B0409F0A1CFF301D183C083DF91CF91FB
:1002A0001F910F91FF90EF90DF90CF90BF90AF9094
:1002B0009F908F907F906F90089587B1807F87B9CE
:1002C000459A469882E08A95F1F700C0479A92E0F5
:1002D0009A95F1F700C086B18295807F92E09A9559
:1002E000F1F700C0479895E09A95F1F70000479A1A
:1002F00092E09A95F1F700C096B192E09A95F1F7E5
:1003000000C0479895E09A95F1F700008823F4F231
:10031000459887B18F6087B90895282F22952F704F
:100320008F70611102C0469801C0469A92E09A957A
:10033000F1F700C0479A98B1907F922B98B995E059
:100340009A95F1F70000479895E09A95F1F700002B
:10035000479A98B1907F892B88B985E08A95F1F703
:100360000000479895E09A95F1F70000A6CF089510
:10037000CF93C82F2FEF86E791E021508040904027
:10038000E1F700C0000087B18F6087B93F9A3E9ABD
:100390003D9A88B1807F88B947984598469800C0B3
:1003A00000C00000479A419A25E02A95F1F7000025
:1003B000479885E08A95F1F700007FDF60E08C2F99
:1003C0008C60ABDF60E088E2A8DFCF910895CF9327
:1003D000DF93EC018881882331F0219661E09DDF75
:1003E00089918111FBCFDF91CF910895EF92FF9218
:1003F0000F931F93CF93DF9300D01F921F92CDB71F
:10040000DEB77B01FE01319625E0DF011D922A95C2
:10041000E9F7009751F035962AE030E0B901FBD3B7
:100420008293862F972F0097C9F7BFEFEB16FB0635
:1004300069F4898181111DC0FE01329600E010E04F
:100440000F5F1F4F81918823D9F30FC005E010E0A3
:100450000E191F090AC0F80181918F0161E0805DCA
:100460005CDF0E151F05B9F711C0053011051CF032
:100470000DC000E010E081E090E08C0F9D1F080FA0
:10048000191F7E0196E0E90EF11CE5CF0F900F9049
:100490000F900F900F90DF91CF911F910F91FF90D0
:1004A000EF900895883228F46111806460E08068DC
:1004B00034CF0895FC0111821082FB011182108259
:1004C0000895CF93DF93EC0183E090E0CBD3998341
:1004D0008883FC0112821182DF91CF910895DB01A4
:1004E000ED91FC91309761F0DA018D919C9111971B
:1004F000928381838D919C91FB01918380830895E8
:10050000DA012D913C911197FC01318320838D916B
:100510009C91DB018D939C930895FC0180819181D6
:10052000DA018D939C93A081B181109759F01196B7
:100530008D919C91129791838083892B19F4FB01F3
:10054000118210820895CF93DF93CDB7DEB72A973B
:100550000FB6F894DEBF0FBECDBF24D38FEF8093CC
:100560000A0181B983E084B91DB802DF60E081E04F
:10057000D4DE8AE493E02BDF84EF91E01DD3F8947E
:100580008DB387628DBBE9E6F0E080818E63808366
:10059000EAE6F0E0808184608083EAE7F0E0808131
:1005A00080688083808188608083ECE7F0E08081D0
:1005B0008064808310929000E1E9F0E08081807295
:1005C00080838081846080837894ACDD9A83898382
:1005D000BE016B5F7F4FCE0103966CDF1A861986D2
:1005E00018861F82CAD28FE7DBD29091420385B171
:1005F000892B85B90F2EFBE0EF2EFF24F394F02D0D
:100600000F2EF5E9AF2EB12CF02D6894992497F8B0
:10061000892C0F2EF4E9CF2ED12CF02D09E813E010
:1006200080918D038230F9F028F4882351F08130D5
:1006300059F0F6CF833009F4C1C0843009F4E3C027
:10064000EFCFF7019082ECCF80E4F70180838091B7
:100650004303813029F710924303EAE7F0E08081F9
:1006600080648083DDCF80E2F7018083AE01475F45
:100670005F4FBE016B5F7F4FCE0103964EDFE0916F
:100680008703F0918803A985BA858C91EE0FFF1F2F
:10069000EE0FFF1FED58FC4FE80FF11D80818823FE
:1006A00041F183E08093420380914203837085B9D6
:1006B000C09BFECFE0918703F0918803A985BA859E
:1006C0008C91EE0FFF1FEE0FFF1FED58FC4FE80F50
:1006D000F11D8081BE016F5F7F4F082E000C990BCA
:1006E00043DDE985FA85808190E0909388038093CB
:1006F0008703E985FA85E081F0E0E757FC4F8081C8
:100700008F5F8083809185039091860301979093FA
:1007100086038093850360E081E0FFDD60E080E098
:10072000C1DE88E593E053DE61E080E0BBDEF801E6
:10073000808162E070E090E059DE61E083E0B2DE4B
:10074000F801818162E070E090E050DE61E086E0D7
:10075000A9DEF801828162E070E090E047DE61E0AE
:1007600089E0A0DEF801838162E070E090E03EDE87
:1007700061E08CE097DE809185039091860362E0D2
:1007800070E034DE89859A8505D3809184038130B9
:1007900021F483E080938D0302C010928D0382E0E8
:1007A0008093420380914203837085B980EDF50107
:1007B000808388E9F6018083C09A32CF80EAF7010E
:1007C000808325E030E0F5018082F6011082C09A36
:1007D0000CC080918D03833041F087EEF50180835A
:1007E00085E9F6018083C09A1BCFC09BF2CF2150D0
:1007F000310949F783E0809342038091420383707B
:1008000085B9F894FFCF8091850390918603019676
:10081000909386038093850380E2F701808360E0F4
:1008200081E07BDD60E08CE03DDE809144039091CF
:10083000450363E070E0DADD809144039091450365
:100840008939934088F48091440390914503813223
:10085000934060F48091440390914503873991055A
:1008600048F4772473940AC0712C08C068947724E4
:1008700071F804C00F2EF3E07F2EF02DCE01079605
:1008800020DEEF81F8857082AE01495F5F4FBE01C7
:100890006B5F7F4FCE01039622DE60E080E002DED8
:1008A00087E693E094DD61E080E0FCDDF801808183
:1008B00062E070E090E09ADD61E083E0F3DDF80152
:1008C000818162E070E090E091DD61E086E0EADD48
:1008D000F801828162E070E090E088DD61E089E00B
:1008E000E1DDF801838162E070E090E07FDD8FEF71
:1008F00093E0909345038093440310928D0390CE30
:100900001F920F920FB60F9211248F9382E0809363
:100910008D038F910F900FBE0F901F9018951F920F
:100920000F920FB60F9211240BB60F922F933F9395
:100930004F935F936F937F938F939F93AF93BF93E7
:10094000EF93FF9384E190E037D181E080938403BB
:1009500083E080938D03E19AFF91EF91BF91AF9176
:100960009F918F917F916F915F914F913F912F91C7
:100970000F900BBE0F900FBE0F901F9018951F92F7
:100980000F920FB60F9211240BB60F922F933F9335
:100990004F935F936F937F938F939F93AF93BF9387
:1009A000CF93DF93EF93FF9360E081E0B6DC60E0EC
:1009B00080E078DD88E593E00ADD61E080E072DDCB
:1009C000C9E8D3E0888162E070E090E00FDD61E08B
:1009D00083E068DD898162E070E090E007DD61E03E
:1009E00086E060DD8A8162E070E090E0FFDC61E03B
:1009F00089E058DD8B8162E070E090E0F7DC61E037
:100A00008CE050DD809185039091860362E070E078
:100A1000EDDC83E08093420380914203837085B9CB
:100A20004A99FECF84E190E0C7D04A9BFECF60E0B8
:100A300081E073DC84E190E0BFD04A99FECF84E18D
:100A400090E0BAD080918D03823039F082E08093BB
:100A5000420380914203837085B9E29AFF91EF913E
:100A6000DF91CF91BF91AF919F918F917F916F91C6
:100A70005F914F913F912F910F900BBE0F900FBE42
:100A80000F901F9018951F920F920FB60F9211247E
:100A90000BB60F922F933F934F935F936F937F9378
:100AA0008F939F93AF93BF93EF93FF9383E090E077
:100AB00083D0659B04C081E080938D0303C084E0F4
:100AC00080938D03FF91EF91BF91AF919F918F9193
:100AD0007F916F915F914F913F912F910F900BBE3E
:100AE0000F900FBE0F901F9018951F920F920FB688
:100AF0000F9211242F934F935F938F939F93409165
:100B00004403509145038091780090E09093450311
:100B10008093440320917900809144039091450390
:100B20002370922B90934503809344038091440358
:100B3000909145038417950720F050934503409307
:100B4000440381E0809343039F918F915F914F9184
:100B50002F910F900FBE0F901F9018951F920F921C
:100B60000FB60F9211248F9380EF80930B018F911A
:100B70000F900FBE0F901F90189584B5836084BDB1
:100B800085B5877F85BD84B5806884BD84B58F7B3E
:100B900084BD85B5826085BD8FE787BD279A08959E
:100BA00087BD0895E1E6F0E080E8808381E08083FE
:100BB00082E0809381000895AC01E1E8F0E090814B
:100BC0009860908388EE93E09093890080938800EA
:100BD0001092850010928400B19A20E030E005C0A8
:100BE000B19BFECFB19A2F5F3F4F241735071CF4FE
:100BF000B19BF6CFF7CF08959C01E1E8F0E090813A
:100C0000986090833093890020938800B19AB19BBB
:100C1000FECFB19A089597FB072E16F4009406D0E4
:100C200077FD08D00BD007FC05D03EF49095819558
:100C30009F4F0895709561957F4F0895AA1BBB1B28
:100C400051E107C0AA1FBB1FA617B70710F0A61BCC
:100C5000B70B881F991F5A95A9F780959095BC01ED
:100C6000CD0108950F931F93CF93DF9382309105A9
:100C700010F482E090E0E0919003F091910320E085
:100C800030E0A0E0B0E0309719F14081518102815D
:100C9000138148175907C8F08417950769F410970E
:100CA00031F012960C93129713961C9327C0009361
:100CB00090031093910322C02115310519F04217BA
:100CC000530718F49A01BD01EF01DF01F801DBCFF2
:100CD00021153105F9F0281B390B2430310580F43A
:100CE0008A819B816115710521F0FB0193838283C9
:100CF00004C09093910380939003FE01329644C008
:100D0000FE01E20FF31F8193919322503109398341
:100D100028833AC020918E0330918F03232B41F416
:100D2000209102023091030230938F0320938E03AF
:100D300020910002309101022115310541F42DB7B7
:100D40003EB74091040250910502241B350BE091FF
:100D50008E03F0918F03E217F307A0F42E1B3F0BD5
:100D60002817390778F0AC014E5F5F4F241735071D
:100D700048F04E0F5F1F50938F0340938E03819373
:100D8000919302C0E0E0F0E0CF01DF91CF911F919D
:100D90000F910895CF93DF93009709F481C0FC0170
:100DA000329713821282A0919003B0919103109711
:100DB00081F420813181820F931F20918E03309125
:100DC0008F032817390751F5F0938F03E0938E03B3
:100DD00067C0ED0120E030E0CE17DF0740F44A8124
:100DE0005B819E0141155105F1F0EA01F5CFD383F6
:100DF000C28340815181840F951FC817D90759F4C8
:100E000088819981840F951F0296918380838A81BE
:100E10009B81938382832115310529F4F0939103FB
:100E2000E09390033DC0E901FB83EA834991599126
:100E3000C40FD51FEC17FD0761F480819181840FE9
:100E4000951F0296E90199838883828193819B8310
:100E50008A83E0E0F0E012968D919C9113970097C1
:100E600019F0FD01DC01F7CF8D919C9111979D0147
:100E70002E5F3F4F820F931F20918E0330918F037F
:100E80002817390769F4309729F4109291031092CA
:100E9000900302C013821282B0938F03A0938E033B
:0A0EA000DF91CF910895F894FFCF81
:100EAA00000092032000020003000000010000007D
:100EBA00010002000300204EEC4D544D604C184BCB
:100ECA008449AB4795454843CF402E3E703B9A38FC
:100EDA00B535C832DB2FF62C202A6227C1244822D6
:100EEA00FC1FE51D0C1C781A30193C18A417701742
:100EFA0070177017701770177017701770177017B0
:100F0A00701770177017701770177017701770179F
:100F1A00701770177017701770177017701770178F
:100F2A00701770177017701770178717CC173C183F
:100F3A00D5189419781A7D1BA21CE51D431FBA20E7
:100F4A004822E9239E2562273329102BF62CE32E0B
:100F5A00D430C832BC34AD369A38803A5D3C2E3E25
:100F6A00F23FA7414843D6444D46AB47EE48134AA1
:100F7A00184BFC4BBB4C544DC44D094E204E204ED1
:100F8A00744D914BA448DE446C407E3B4236E830B7
:100F9A009E2B9426F821F91DC61A8E187017701701
:100FAA0070177017701770177017701770177017FF
:100FBA00701770177017701770177017A917B6186F
:100FCA00871A031D1120952378279E2BEF2F513462
:100FDA00AA38DF3CD9407D44B0475B4A624CAC4DED
:100FEA00204E0201FF0335362E2D50726F67726153
:100FFA006D20536574757000424C20414C2057494E
:10100A0020464520554E00424C20414C205749204D
:10101A00464500003264CECE00326464CE003232DD
:04102A0064CE000090
:00000001FF
