S0150000546865207265616C206465616C2E7372656374
S113000071C0000081C400008EC40000BEC40000A2
S113001088C0000086C0000009C5000082C000003E
S113002080C000007EC000007CC000007AC00000D8
S113003078C0000076C0000074C0000072C00000E8
S113004070C000006EC000006CC000006AC00000F8
S113005068C0000066C0000064C0000062C0000008
S113006060C000005EC000005CC000005AC0000018
S113007058C000000DC5000054C0000052C000006C
S113008050C000004EC000004CC000004AC0000038
S113009048C0000046C0000044C0000042C0000048
S11300A040C000003EC000003CC000003AC0000058
S11300B038C0000036C0000034C0000032C0000068
S11300C030C000002EC000002CC000002AC0000078
S11300D028C0000026C0000024C0000022C0000088
S11300E020C0000011241FBECFEFD1E2DEBFCDBF80
S11300F000E00CBF13E0A0E0B2E0E6E5FEE000E0C3
S11301000BBF02C007900D92A639B107D9F723E0BF
S1130110A6E9B3E001C01D92A13AB207E1F714D2F7
S113012098C6F2C4CF93DF934F9903C0C0E0D0E0E8
S113013017C0C0E0D0E0CE01019683709078992377
S113014024F401978C6F9F6F0196EC01FC01E85B2E
S1130150FC4F808182B984E190E004D54F99EBCFC4
S113016012B8CE01DF91CF9108956F927F928F9252
S11301709F92AF92BF92CF92DF92EF92FF920F9332
S11301801F93CF93DF937C013B01DB01CD91DC9185
S1130190992354F4F194E194F1080F2EF6E0CF2E54
S11301A0F2E0DF2EF02D06C00F2EFEE0CF2EF2E09F
S11301B0DF2EF02D1E141F040CF06EC00F2EFEED6A
S11301C08F2EF2E09F2EF02D06E112E0C701880F7A
S11301D0991FFC01E252FD4F5F01C130D10519F1B5
S11301E01CF4209791F03AC0C230D10551F1C330CC
S11301F0D105A1F5D601ED91FC911197E85BFC4F77
S1130200808182B9CD91DC9129C0D6011296ED91FD
S1130210FC911397E85BFC4F808182B91296CD91D3
S1130220DC9113971BC0D6011496ED91FC911597A0
S1130230E85BFC4F808182B91496CD91DC911597CF
S11302400DC0D6011696ED91FC911797E85BFC4F13
S1130250808182B91696CD91DC911797B2E3EB16A3
S1130260F10429F4F401808191819CD40CC0F4E65A
S1130270EF16F10429F4D8018D919C9193D403C015
S113028084E190E06FD4B2E08B0E911C0E5F1F4F9F
S11302908A149B0409F0A1CFF301D183C083DF91B9
S11302A0CF911F910F91FF90EF90DF90CF90BF906F
S11302B0AF909F908F907F906F90089587B1807FCB
S11302C087B9459A469882E08A95F1F700C0479A23
S11302D092E09A95F1F700C086B18295807F92E012
S11302E09A95F1F700C0479895E09A95F1F70000C8
S11302F0479A92E09A95F1F700C096B192E09A95E8
S1130300F1F700C0479895E09A95F1F7000088232B
S1130310F4F2459887B18F6087B90895282F229504
S11303202F708F70611102C0469801C0469A92E006
S11303309A95F1F700C0479A98B1907F922B98B99B
S113034095E09A95F1F70000479895E09A95F1F7B2
S11303500000479A98B1907F892B88B985E08A95E7
S1130360F1F70000479895E09A95F1F70000A6CFC1
S11303700895CF93C82F2FEF86E791E02150804056
S11303809040E1F700C0000087B18F6087B93F9AC1
S11303903E9A3D9A88B1807F88B947984598469897
S11303A000C000C00000479A419A25E02A95F1F761
S11303B00000479885E08A95F1F700007FDF60E050
S11303C08C2F8C60ABDF60E088E2A8DFCF910895CA
S11303D0CF93DF93EC018881882331F0219661E08B
S11303E09DDF89918111FBCFDF91CF910895EF9229
S11303F0FF920F931F93CF93DF9300D01F921F920E
S1130400CDB7DEB77B01FE01319625E0DF011D92F9
S11304102A95E9F7009751F035962AE030E0B901C2
S1130420D0D38293862F972F0097C9F7BFEFEB168F
S1130430FB0669F4898181111DC0FE01329600E03A
S113044010E00F5F1F4F81918823D9F30FC005E09F
S113045010E00E191F090AC0F80181918F0161E0B3
S1130460805D5CDF0E151F05B9F711C0053011055D
S11304701CF00DC000E010E081E090E08C0F9D1FA7
S1130480080F191F7E0196E0E90EF11CE5CF0F90CD
S11304900F900F900F900F90DF91CF911F910F91BC
S11304A0FF90EF900895883228F46111806460E031
S11304B0806834CF0895FC0111821082FB011182FF
S11304C010820895CF93DF93EC0184E090E0A0D3F1
S11304D099838883FC0113821282DF91CF9108955E
S11304E0DB01ED91FC91309761F0DA018D919C91E3
S11304F01197938382838D919C91FB0191838083D7
S11305000895DA012D913C911197FC0131832083E8
S11305108D919C91DB018D939C930895FC018081C6
S11305209181DA018D939C93A081B181109759F048
S113053012968D919C91139791838083892B19F442
S1130540FB01118210820895CF93DF93CDB7DEB7FC
S11305502A970FB6F894DEBF0FBECDBFF9D28FEF46
S113056080930A0181B983E084B91DB802DF60E099
S113057081E0D4DE8CE493E02BDF84EF91E0F2D2CF
S11305808091430385B9F8948DB387628DBBE9E606
S1130590F0E080818E638083EAE6F0E0808184600D
S11305A08083EAE7F0E080818068808380818860CE
S11305B08083ECE7F0E08081806480831092900077
S11305C0E1E9F0E0808180728083808184608083AF
S11305D087EE8093950085E980939400789460E099
S11305E081E09CDE9FDD9A838983FC01E85BFC4FFC
S11305F0808182B9BE016B5F7F4FCE0103965BDFC2
S11306001A86198618861F82109242038CD28FE7AD
S11306109DD282E0809343039091430385B1892B5B
S113062085B90F2EF3E05F2EF02DA52C0F2EFBE0E5
S1130630EF2EFF24F394F02D0F2EF5E96F2E712C7D
S1130640F02D0F2EF4E98F2E912CF02D0F2EF0E3C8
S1130650BF2EF02D2D813E8180919603813029F4A7
S11306602115310511F4A092420380914203823096
S113067021F128F4882351F0813061F0EDCF8330EB
S113068009F47FC0843009F4C0C0E6CF80E8F701E4
S11306908083E0CF80E4F7018083809144039091CC
S11306A045030197B9F61092450310924403EAE713
S11306B0F0E0808180648083CDCF80E2F701808385
S11306C0AE01475F5F4FBE016B5F7F4FCE01039664
S11306D025DFE0919703F0919803A985BA85EE0F81
S11306E0FF1FEE0FFF1F8D919C91E80FF91FEE0F76
S11306F0FF1FEB58FC4F80819181892B71F1A092EF
S1130700430380914303837085B9C09904C0F70102
S1130710B082C09BFCCFF7011082E0919703F09167
S11307209803A985BA85EE0FFF1FEE0FFF1F8D9169
S11307309C91E80FF91FEE0FFF1FEB58FC4FBE0111
S11307406F5F7F4F8081918110DDE985FA8580811B
S11307509181909398038093970389859A85F0D229
S11307601092420382E08093430380914303837099
S113077085B987EEF301808385E9F4018083C09A0B
S113078069CF08E813E181E090E0ECD18D819E818E
S1130790892B19F0109242035DCF0150110999F78A
S11307A060E080E080DE8AE593E012DE61E080E0D4
S11307B07ADE09E913E0F801808162E070E090E0FC
S11307C016DE61E083E06FDEF801818162E070E0B3
S11307D090E00DDE61E086E066DEF801828162E091
S11307E070E090E004DE61E089E05DDEF801838181
S11307F062E070E090E0FBDD83E08093430380914E
S11308004303837085B9F894FECF80E2F7018083B7
S113081060E081E083DD60E08CE045DE80914603AA
S11308209091470363E070E0E2DD8091460390918C
S113083047038D3A934088F480914603909147038F
S11308408132934068F48091460390914703813943
S1130850914048F401E010E008C000E010E005C059
S113086002E010E002C003E010E00F2EF9E9CF2E01
S1130870F3E0DF2EF02DF801E756FC4F80818F5F07
S11308808083CE0107961EDEEF81F88511830083F5
S1130890AE01495F5F4FBE016B5F7F4FCE01039690
S11308A01FDE60E080E0FFDD8AE593E091DD61E03A
S11308B080E0F9DDF601808162E070E090E097DD90
S11308C061E0852DF0DDF601818162E070E090E069
S11308D08EDD61E086E0E7DDF601828162E070E0B2
S11308E090E085DD61E089E0DEDDF601838162E090
S11308F070E090E07CDD8FEF93E09093470380936A
S1130900460310924203A6CE1F920F920FB60F9287
S113091011248F9382E0809342038F910F900FBE36
S11309200F901F9018951F920F920FB60F921124DB
S11309300BB60F922F933F934F935F936F937F93D5
S11309408F939F93AF93BF93EF93FF9384E190E0D2
S113095009D14999FECF84E190E004D181E08093EC
S11309609603E19AFF91EF91BF91AF919F918F917F
S11309707F916F915F914F913F912F910F900BBE9B
S11309800F900FBE0F901F9018951F920F920FB6E5
S11309900F9211240BB60F922F933F934F935F93B3
S11309A06F937F938F939F93AF93BF93EF93FF9333
S11309B060E081E0B3DC86E693E00ADD83E08093C7
S11309C0430380914303837085B94A99FECF84E140
S11309D090E0C8D04A9BFECF60E081E09FDC84E1D8
S11309E090E0C0D04A99FECF84E190E0BBD08091E2
S11309F04203823039F082E08093430380914303C1
S1130A00837085B9E29AFF91EF91BF91AF919F9165
S1130A108F917F916F915F914F913F912F910F90A3
S1130A200BBE0F900FBE0F901F9018951F920F9240
S1130A300FB60F9211240BB60F922F933F934F933F
S1130A405F936F937F938F939F93AF93BF93EF9332
S1130A50FF9383E090E086D0659B04C081E080939F
S1130A60420303C084E080934203FF91EF91BF915E
S1130A70AF919F918F917F916F915F914F913F9132
S1130A802F910F900BBE0F900FBE0F901F901895D3
S1130A901F920F920FB60F9211242F934F935F93CF
S1130AA08F939F9340914603509147038091780020
S1130AB090E09093470380934603209179008091BE
S1130AC04603909147032370922B9093470380939E
S1130AD0460380914603909147038417950720F0BD
S1130AE0509347034093460381E090E0909345037D
S1130AF0809344039F918F915F914F912F910F9019
S1130B000FBE0F901F9018951F920F920FB60F9261
S1130B1011248F9380EF80930B018F910F900FBE60
S1130B200F901F90189584B5836084BD85B5877F29
S1130B3085BD84B5806884BD84B58F7B84BD85B54F
S1130B40826085BD8FE787BD279A089587BD089584
S1130B50E1E6F0E080E8808381E0808382E08093B6
S1130B6081000895AC01E1E8F0E090819860908301
S1130B7088EE93E09093890080938800109285001A
S1130B8010928400B19A20E030E005C0B19BFECF02
S1130B90B19A2F5F3F4F241735071CF4B19BF6CF52
S1130BA0F7CF08959C01E1E8F0E09081986090838C
S1130BB03093890020938800B19AB19BFECFB19AFB
S1130BC0089597FB072E16F4009406D077FD08D0FD
S1130BD00BD007FC05D03EF4909581959F4F089566
S1130BE0709561957F4F0895AA1BBB1B51E107C007
S1130BF0AA1FBB1FA617B70710F0A61BB70B881FA9
S1130C00991F5A95A9F780959095BC01CD01089537
S1130C100F931F93CF93DF938230910510F482E0FA
S1130C2090E0E0919F03F091A00320E030E0A0E089
S1130C30B0E0309719F14081518102811381481746
S1130C405907C8F08417950769F4109731F0129684
S1130C500C93129713961C9327C000939F03109331
S1130C60A00322C02115310519F04217530718F4C7
S1130C709A01BD01EF01DF01F801DBCF2115310538
S1130C80F9F0281B390B2430310580F48A819B81CB
S1130C906115710521F0FB019383828304C0909355
S1130CA0A00380939F03FE01329644C0FE01E20F2D
S1130CB0F31F8193919322503109398328833AC0D9
S1130CC020919D0330919E03232B41F42091020235
S1130CD03091030230939E0320939D0320910002E0
S1130CE0309101022115310541F42DB73EB74091F1
S1130CF0040250910502241B350BE0919D03F091F1
S1130D009E03E217F307A0F42E1B3F0B28173907A5
S1130D1078F0AC014E5F5F4F2417350748F04E0F53
S1130D205F1F50939E0340939D038193919302C050
S1130D30E0E0F0E0CF01DF91CF911F910F91089592
S1130D40CF93DF93009709F481C0FC01329713829B
S1130D501282A0919F03B091A003109781F4208187
S1130D603181820F931F20919D0330919E03281798
S1130D70390751F5F0939E03E0939D0367C0ED019D
S1130D8020E030E0CE17DF0740F44A815B819E010A
S1130D9041155105F1F0EA01F5CFD383C2834081B7
S1130DA05181840F951FC817D90759F488819981F7
S1130DB0840F951F0296918380838A819B819383FC
S1130DC082832115310529F4F093A003E0939F0356
S1130DD03DC0E901FB83EA8349915991C40FD51FB2
S1130DE0EC17FD0761F480819181840F951F0296B1
S1130DF0E90199838883828193819B838A83E0E0DC
S1130E00F0E012968D919C911397009719F0FD01D3
S1130E10DC01F7CF8D919C9111979D012E5F3F4F7F
S1130E20820F931F20919D0330919E032817390749
S1130E3069F4309729F41092A00310929F0302C022
S1130E4013821282B0939E03A0939D03DF91CF91EE
S1090E500895F894FFCFA1
S1130E560000A103200002000300000001000000BE
S1130E66010002000300983A7C3A2D3AAE39023961
S1130E762C3831371436D834813313329030FE2E61
S1130E865E2DB52B072A5728A726FD245C23C621E9
S1130E964020CE1E721D301C0C1B0A1A2D19781800
S1130EA6EF1796177017701770177017701770175B
S1130EB670177017701770177017701770177017F0
S1130EC670177017701770177017701770177017E0
S1130ED677179617CC1718187818EC1872190A1A77
S1130EE6B21A6A1B301C031DE31DCE1EC21FC0208E
S1130EF6C621D322E623FD24192637275728772926
S1130F06972AB52BD12CEA2DFE2E0C301331133231
S1130F160933F633D834AE3576363137DD3778389B
S1130F2602397939DE392D3A683A8B3A983A983A41
S1130F36CD39A13760345830D42B22278F22681E2E
S1130F46F91A8F18701770177017701770177017B3
S1130F56701770177017701770177017701770174F
S1130F66701770177017701770177017701770173F
S1130F76AB178F180A1A051C681E1D210D2422277B
S1130F86452A5E2D58301A339035A13737393C3A05
S1130F96983A02020100FF0335362E2D50726F6710
S1130FA672616D20536574757000424C20414C206B
S1130FB657492046450050726F6772616D20506133
S1130FC67573656400000032006400CEFFCEFF0036
S1130FD600320064006400CEFF0000320032006478
S1090FE600CEFF00000034
S9030000FC
