S0150000546865207265616C206465616C2E7372656374
S113000071C000009AC200008CC00000ABC20000A6
S113001088C0000086C00000F4C2000082C0000056
S113002080C000007EC000007CC000007AC00000D8
S113003078C0000076C0000074C0000072C00000E8
S113004070C000006EC000006CC000006AC00000F8
S113005068C0000066C0000064C0000062C0000008
S113006060C000005EC000005CC000005AC0000018
S113007058C00000F8C2000054C0000052C0000084
S113008050C000004EC000004CC000004AC0000038
S113009048C0000046C0000044C0000042C0000048
S11300A040C000003EC000003CC000003AC0000058
S11300B038C0000036C0000034C0000032C0000068
S11300C030C000002EC000002CC000002AC0000078
S11300D028C0000026C0000024C0000022C0000088
S11300E020C0000011241FBECFEFD1E2DEBFCDBF80
S11300F000E00CBF12E0A0E0B2E0E2EEF7E000E0C6
S11301000BBF02C007900D92AE32B107D9F722E0BF
S1130110AEE2B2E001C01D92A333B207E1F7FFD013
S11301205EC3E8C287B1807F87B9459A469882E06A
S11301308A95F1F700C0479A92E09A95F1F700C0CA
S113014086B18295807F92E09A95F1F700C0479836
S113015095E09A95F1F70000479A92E09A95F1F7A5
S113016000C096B192E09A95F1F700C0479895E0E7
S11301709A95F1F700008823F4F2459887B18F60CF
S113018087B90895282F22952F708F70611102C0AE
S1130190469801C0469A92E09A95F1F700C0479AB2
S11301A098B1907F922B98B995E09A95F1F7000059
S11301B0479895E09A95F1F70000479A98B1907F97
S11301C0892B88B985E08A95F1F70000479895E076
S11301D09A95F1F70000A6CF0895CF93C82F2FEF7B
S11301E086E791E0215080409040E1F700C0000094
S11301F087B18F6087B93F9A3E9A3D9A88B1807FD4
S113020088B947984598469800C000C00000479AAE
S1130210419A25E02A95F1F70000479885E08A95F0
S1130220F1F700007FDF60E08C2F8C60ABDF60E0D3
S113023088E2A8DFCF910895CF93DF93EC01888102
S1130240882331F0219661E09DDF89918111FBCFF4
S1130250DF91CF910895EF92FF920F931F93CF9365
S1130260DF9300D01F921F92CDB7DEB77B01FE0152
S1130270319625E0DF011D922A95E9F7009751F0A8
S113028035962AE030E0B90183D28293862F972FE6
S11302900097C9F7BFEFEB16FB0669F4898181115A
S11302A01DC0FE01329600E010E00F5F1F4F8191E8
S11302B08823D9F30FC005E010E00E191F090AC006
S11302C0F80181918F0161E0805D5CDF0E151F05EF
S11302D0B9F711C0053011051CF00DC000E010E0A5
S11302E081E090E08C0F9D1F080F191F7E0196E09E
S11302F0E90EF11CE5CF0F900F900F900F900F9027
S1130300DF91CF911F910F91FF90EF900895883264
S113031028F46111806460E0806834CF08954F92BE
S11303205F926F927F928F929F92AF92BF92CF9281
S1130330DF92EF92FF920F931F93CF93DF93FED13F
S11303408FEF80930A0183E084B91DB88091000285
S11303508295880F880F807C80930B0183E03DDFBA
S113036060E081E00FDF85E092E066DF84EF91E0FA
S1130370EFD18091000285B9F8948DB387628DBB6B
S1130380E9E6F0E080818E638083EAE6F0E0808134
S113039084608083EAE7F0E08081806880838081E4
S11303A088608083ECE7F0E08081806480837894C7
S11303B0B0D186E6C1D19091000285B1892B85B96F
S11303C00BE011E06894662465F8CEE2D2E00F2ECB
S11303D0F7EEEF2EF3E0FF2EF02DC12CD12C4424A8
S11303E04394512C6894772477F86894882486F889
S11303F00F2EFAE7AF2EB12CF02D6894992493F8C0
S113040080913202823001F128F4882349F081304E
S113041051F0F6CF833009F47BC08430C9F0F0CFBB
S1130420F8017082EDCFF8018082809101029091F1
S11304300202019729F7D0920202C0920102F5014B
S1130440808180648083DCCF98B810923202D8CF48
S1130450F801608260E081E095DE80910302909172
S11304600402893B914088F4809103029091040234
S11304708D37914060F480910302909104028B3F88
S1130480910540F4E3E0F0E007C0F60105C0E42D77
S1130490F52D02C0E2E0F0E0E25DFD4F80818F5F68
S11304A0808360E080E033DF83E192E0C5DE60E0DA
S11304B08CE02DDF809103029091040263E070E0F0
S11304C0CADE61E080E023DF888162E070E090E0D2
S11304D0C2DE61E083E01BDF898162E070E090E0CE
S11304E0BADE61E086E013DF8A8162E070E090E0CA
S11304F0B2DE61E089E00BDF8B8162E070E090E0C6
S1130500AADEF0920402E09203021092320278CF43
S113051080EF88B980E090E0DF91CF911F910F9137
S1130520FF90EF90DF90CF90BF90AF909F908F900F
S11305307F906F905F904F9008951F920F920FB627
S11305400F9211248F931092000280910002837005
S113055085B982E0809332028F910F900FBE0F9085
S11305601F9018951F920F920FB60F9211240BB67D
S11305700F922F933F934F935F936F937F938F9338
S11305809F93AF93BF93EF93FF9360E081E0FADD15
S11305908FE192E051DE84E190E0DAD01092000223
S11305A080910002837085B94A99FECF84E190E07E
S11305B0CFD04A9BFECF60E081E0E4DD84E190E0AF
S11305C0C7D04A99FECF84E190E0C2D082E0809304
S11305D0000280910002837085B9E29AFF91EF9145
S11305E0BF91AF919F918F917F916F915F914F9147
S11305F03F912F910F900BBE0F900FBE0F901F9045
S113060018951F920F920FB60F9211240BB60F92EA
S11306102F933F934F935F936F937F938F939F9306
S1130620AF93BF93EF93FF9384E190E091D0659BE8
S113063004C081E08093320203C084E080933202DC
S1130640FF91EF91BF91AF919F918F917F916F91A6
S11306505F914F913F912F910F900BBE0F900FBE62
S11306600F901F9018951F920F920FB60F9211249E
S11306702F933F934F935F936F938F939F934091E7
S11306800302509104028091780090E09093040258
S113069080930302209179008091030290910402D7
S11306A061E0211101C060E020E030E0362F822BB0
S11306B0932B909304028093030280910302909100
S11306C004028417950720F0509304024093030218
S11306D081E090E090930202809301029F918F91B8
S11306E06F915F914F913F912F910F900FBE0F909B
S11306F01F9018951F920F920FB60F9211248F938B
S113070080EF80930B018F910F900FBE0F901F907D
S1130710189584B5836084BD85B5877F85BD84B510
S1130720806884BD84B58F7B84BD85B5826085BDBA
S11307308FE787BD279A089587BD0895E1E6F0E025
S113074080E8808381E0808382E080938100089543
S1130750AC01E1E8F0E090819860908388EE93E04A
S113076090938900809388001092850010928400F1
S1130770B19A20E030E005C0B19BFECFB19A2F5F63
S11307803F4F241735071CF4B19BF6CFF7CF0895DC
S113079097FB072E16F4009406D077FD08D00BD0F3
S11307A007FC05D03EF4909581959F4F0895709570
S11307B061957F4F0895AA1BBB1B51E107C0AA1F77
S11307C0BB1FA617B70710F0A61BB70B881F991FEE
S11307D05A95A9F780959095BC01CD010895F89498
S10507E0FFCF45
S11307E2020100E70350726F6772616D20536574F2
S11307F2757000424C20574920535420414C0050FC
S1110802726F6772616D2050617573656400DA
S9030000FC
