S0150000546865207265616C206465616C2E7372656374
S113000071C000008EC000008CC000008AC10000D6
S113001088C0000086C00000BCC1000082C000008F
S113002080C000007EC000007CC000007AC00000D8
S113003078C0000076C0000074C0000072C00000E8
S113004070C000006EC000006CC000006AC00000F8
S113005068C0000066C0000064C0000062C0000008
S113006060C000005EC000005CC000005AC0000018
S113007058C00000BCC1000054C0000052C00000C1
S113008050C000004EC000004CC000004AC0000038
S113009048C0000046C0000044C0000042C0000048
S11300A040C000003EC000003CC000003AC0000058
S11300B038C0000036C0000034C0000032C0000068
S11300C030C000002EC000002CC000002AC0000078
S11300D028C0000026C0000024C0000022C0000088
S11300E020C0000011241FBECFEFD1E2DEBFCDBF80
S11300F000E00CBF12E0A0E0B2E0ECE1F5E000E0CB
S11301000BBF02C007900D92A232B107D9F722E0CB
S1130110A2E2B2E001C01D92A432B207E1F79BD083
S1130120FBC1ACC187B1807F87B9459A469882E00C
S11301308A95F1F700C0479A92E09A95F1F700C0CA
S113014086B18295807F92E09A95F1F700C0479836
S113015095E09A95F1F70000479A92E09A95F1F7A5
S113016000C096B192E09A95F1F700C0479895E0E7
S11301709A95F1F700008823F4F2459887B18F60CF
S113018087B90895282F22952F708F70611102C0AE
S1130190469801C0469A92E09A95F1F700C0479AB2
S11301A098B1907F922B98B995E09A95F1F7000059
S11301B0479895E09A95F1F70000479A98B1907F97
S11301C0892B88B985E08A95F1F70000479895E076
S11301D09A95F1F70000A6CF0895CF93C82F2FEF7B
S11301E086E791E0215080409040E1F700C0000094
S11301F087B18F6087B93F9A3E9A3D9A88B1807FD4
S113020088B947984598469800C000C00000479AAE
S1130210419A25E02A95F1F70000479885E08A95F0
S1130220F1F700007FDF60E08C2F8C60ABDF60E0D3
S113023088E2A8DFCF910895CF93DF93EC01888102
S1130240882331F0219661E09DDF89918111FBCFF4
S1130250DF91CF91089536D18FEF80930A0183E027
S113026084B91DB8809123028295880F880F807C01
S113027080930B0183E0B1DF60E081E083DF84E001
S113028092E0DADF84EF91E027D18091230285B9EF
S1130290F8948DB384628DBBE9E6F0E080818063DD
S11302A08083EAE6F0E0808184608083EAE7F0E01E
S11302B0808180688083808188608083ECE7F0E0BF
S11302C08081806480837894E8D086E6F9D0EBE07E
S11302D0F1E028E09CE0AAE7B0E0108280912202DD
S11302E08230B1F08330C1F08130B9F7908340910E
S11302F00002509101024130510539F48C9180641F
S11303008C93109201021092000210922202E5CF07
S113031028B910922202E1CF80EF88B980E090E002
S113032008951F920F920FB60F9211240BB60F92DD
S11303302F933F934F935F936F937F938F939F93E9
S1130340AF93BF93EF93FF9360E081E01BDF82E103
S113035092E072DF84EF91E0BFD04A9BFECF60E071
S113036081E010DF88EE93E0B7D0E29AFF91EF913D
S1130370BF91AF919F918F917F916F915F914F91B9
S11303803F912F910F900BBE0F900FBE0F901F90B7
S113039018951F920F920FB60F9211240BB60F925D
S11303A02F933F934F935F936F937F938F939F9379
S11303B0AF93BF93EF93FF9384E190E08DD0659B5F
S11303C003C081E080932202FF91EF91BF91AF912E
S11303D09F918F917F916F915F914F913F912F9159
S11303E00F900BBE0F900FBE0F901F9018951F9289
S11303F00F920FB60F9211242F933F934F935F9355
S11304006F938F939F9340910202509103028091C6
S1130410780090E090930302809302022091790087
S1130420809102029091030261E0211101C060E019
S113043020E030E0362F822B932B9093030280939D
S1130440020280910202909103028417950720F022
S1130450509303024093020281E090E090930102E2
S1130460809300029F918F916F915F914F913F9183
S11304702F910F900FBE0F901F9018951F920F92FF
S11304800FB60F9211248F9380EF80930B018F91FD
S11304900F900FBE0F901F90189584B5836084BD94
S11304A085B5877F85BD84B5806884BD84B58F7B21
S11304B084BD85B5826085BD8FE787BD279A089581
S11304C087BD0895E1E6F0E080E8808381E08083E1
S11304D082E0809381000895AC01E1E8F0E090812E
S11304E09860908388EE93E09093890080938800CD
S11304F01092850010928400B19A20E030E005C08B
S1130500B19BFECFB19A2F5F3F4F241735071CF4E0
S10F0510B19BF6CFF7CF0895F894FFCF0D
S113051C0100C70150726F6772616D205365747569
S113052C700050726F6772616D20506175736564F1
S105053C0000B9
S9030000FC
