S0150000546865207265616C206465616C2E7372656374
S113000071C000000FC500008DC0000021C50000B4
S113001089C0000087C000006EC5000083C00000D6
S113002081C000007FC000007DC000007BC00000D4
S113003079C0000077C0000075C0000073C00000E4
S113004071C000006FC000006DC000006BC00000F4
S113005069C0000067C0000065C0000063C0000004
S113006061C000005FC000005DC000005BC0000014
S113007059C0000072C5000055C0000053C0000004
S113008051C000004FC000004DC000004BC0000034
S113009049C0000047C0000045C0000043C0000044
S11300A041C000003FC000003DC000003BC0000054
S11300B039C0000037C0000035C0000033C0000064
S11300C031C000002FC000002DC000002BC0000074
S11300D029C0000027C0000025C0000023C0000084
S11300E021C0000011241FBECFEFD1E2DEBFCDBF7F
S11300F000E00CBF12E0A0E0B2E0ECE5F1E100E0CA
S11301000BBF02C007900D92A637B107D9F723E0C1
S1130110A6E7B2E001C01D92AE3AB207E1F7B9D248
S11301200C94AC0861C57F928F929F92AF92BF925C
S1130130CF92DF92EF92FF920F931F93CF93DF93AF
S1130140A82EB92E7B01072E000C880B990BCDD558
S11301502DEC3CEC4CEC5EE32CD694D58B01670182
S1130160C61AD70A9601261B370B1E141F040CF05F
S11301703EC0CA2DDB2D41EF46034001479F900C42
S113018011244FE0429FC001439F900D1124881A0F
S1130190990AE0E0F0E020E030E00F2EF5E07F2E59
S11301A0F02D40E00F2EF4E1AF2EB12CF02D2017EE
S11301B0310744F4CF01B80187D6C501861B970BDC
S11301C0BC010DC02C153D0544F0CF01880D991DCF
S11301D0B8017AD66B5F7F4F02C0672D742F699385
S11301E079932F5F3F4F3F96E216F30601F7DF91B5
S11301F0CF911F910F91FF90EF90DF90CF90BF9020
S1130200AF909F908F907F90089580917602909107
S11302107702892B81F462E370E086E493E083DF64
S113022064E670E08EE792E07EDF81E090E09093F8
S11302307702809376020895FF920F931F93CF93D2
S1130240DF934F9903C0C0E0D0E01FC0C0E0D0E00E
S11302500BE011E00F2EF0ECFF2EF02DF801F082F0
S1130260CE01019683709078992324F401978C6FC2
S11302709F6F0196EC01FC01E45CFD4F808182B923
S113028084E190E0DFD44F99E9CF12B8CE01DF9139
S1130290CF911F910F91FF9008956F927F928F924B
S11302A09F92AF92BF92CF92DF92EF92FF920F9301
S11302B01F93CF93DF937C014B01DB016D907C9006
S11302C0992354F4F194E194F1080F2EF6E0CF2E23
S11302D0F2E0DF2EF02D06C00F2EFEE0CF2EF2E06E
S11302E0DF2EF02D1E141F040CF07BC0C6E4D3E0F7
S11302F00EE712E0C701880F991FFC01EA5BFC4F6F
S11303005F01F1E06F16710431F124F4611471049A
S1130310A1F03CC032E06316710459F183E0681621
S11303207104A1F5D601ED91FC911197E45CFD4FA8
S1130330808182B96D907C9029C0D6011296ED918E
S1130340FC911397E45CFD4F808182B912966D9005
S11303507C9013971BC0D6011496ED91FC911597D0
S1130360E45CFD4F808182B914966D907C90159762
S11303700DC0D6011696ED91FC911797E45CFD4FE4
S1130380808182B916966D907C901797B2E3EB1634
S1130390F10461F460E080E02BD162E070E08881D8
S11303A09981CAD0888199814DD414C0E4E6EE16AF
S11303B0F10469F4D8018D919C9144D460E080E00B
S11303C017D162E070E088819981B6D003C084E1DE
S11303D090E038D422960E5F1F4FCA15DB0509F052
S11303E090CFF40171826082DF91CF911F910F91C0
S11303F0FF90EF90DF90CF90BF90AF909F908F9041
S11304007F906F90089587B1807F87B9459A469809
S113041082E08A95F1F700C0479A92E09A95F1F745
S113042000C086B18295807F92E09A95F1F700C072
S1130430479895E09A95F1F70000479A92E09A95CB
S1130440F1F700C096B192E09A95F1F700C0479891
S113045095E09A95F1F700008823F4F2459887B166
S11304608F6087B90895282F22952F708F7061119E
S113047002C0469801C0469A92E09A95F1F700C0EE
S1130480479A98B1907F922B98B995E09A95F1F795
S11304900000479895E09A95F1F70000479A98B1C3
S11304A0907F892B88B985E08A95F1F700004798F9
S11304B095E09A95F1F70000A6CF0895CF93C82F41
S11304C02FEF86E791E0215080409040E1F700C093
S11304D0000087B18F6087B93F9A3E9A3D9A88B1F0
S11304E0807F88B947984598469800C000C00000AE
S11304F0479A419A25E02A95F1F70000479885E04C
S11305008A95F1F700007FDF60E08C2F8C60ABDF11
S113051060E088E2A8DFCF910895CF93DF93EC01E8
S11305208881882331F0219661E09DDF89918111D2
S1130530FBCFDF91CF910895EF92FF920F931F931A
S1130540CF93DF9300D01F921F92CDB7DEB77B010C
S1130550FE01319625E0DF011D922A95E9F7009707
S113056051F035962AE030E0B901AED48293862F5B
S1130570972F0097C9F7BFEFEB16FB0669F4898143
S113058081111DC0FE01329600E010E00F5F1F4F85
S113059081918823D9F30FC005E010E00E191F09DB
S11305A00AC0F80181918F0161E0805D5CDF0E1566
S11305B01F05B9F711C0053011051CF00DC000E08E
S11305C010E081E090E08C0F9D1F080F191F7E0141
S11305D096E0E90EF11CE5CF0F900F900F900F906D
S11305E00F90DF91CF911F910F91FF90EF9008959D
S11305F0883228F46111806460E0806834CF089503
S1130600FC0111821082FB01118210820895CF93A4
S1130610DF93EC0183E090E07ED499838883FC012E
S113062012821182DF91CF910895DB01ED91FC914B
S1130630309761F0DA018D919C91119792838183B7
S11306408D919C91FB01918380830895DA012D9112
S11306503C911197FC01318320838D919C91DB01A6
S11306608D939C930895FC0180819181DA018D938F
S11306709C93A081B181109759F011968D919C9112
S1130680129791838083892B19F4FB0111821082C4
S113069008952F923F924F925F926F927F928F9222
S11306A09F92AF92BF92CF92DF92EF92FF920F93FD
S11306B01F93CF93DF93CDB7DEB7AA970FB6F89405
S11306C0DEBF0FBECDBFB4D28FEF80930A0181B9D4
S11306D083E084B91DB8809117028295880F880F32
S11306E0807C80930B0183E0E9DE60E081E0BBDE87
S11306F080E492E012DF84EF91E0A4D280911702AB
S113070085B9F8948DB387628DBBE9E6F0E080810A
S11307108E638083EAE6F0E0808184608083EAE788
S1130720F0E0808180688083808188608083ECE74A
S1130730F0E0808180648083789460E081E093DEDF
S113074064DD7ADD9A838983FC01E45CFD4F80815A
S113075082B9BE016B5F7F4FCE01039651DF1A86CB
S1130760198618861F82109216024DD286E65ED232
S113077082E0809317029091170285B1892B85B985
S11307800F2EFBE0EF2EFF24F394F02D6894442405
S113079045F80AE712E00F2EF7EEAF2EF3E0BF2E76
S11307A0F02D612C712C22242394312C689455242F
S11307B057F80F2EFAE78F2E912CF02D8091160208
S11307C0823011F128F4882351F0813059F0F6CFAA
S11307D0833009F40AC1843009F48EC0EFCFF701E5
S11307E05082ECCF80E4F7018083809118029091CD
S11307F01902019719F77092190260921802F40114
S1130800808180648083DACFAE01475F5F4FBE0191
S11308106B5F7F4FCE01039626DF80E2ECE1F2E0CE
S1130820DE011B9601900D928A95E1F7E091780222
S1130830F0917902A985BA858C91EE0FFF1FEE0F16
S1130840FF1FE80FF11DEE0FFF1F81E090E08C0FFA
S11308509D1FE80FF91FBC01828593851EDDE98584
S1130860FA85808190E0909379028093780282E007
S1130870809317029091170285B1892B85B98985D8
S11308809A85E1D360E081E0EEDD60E080E0B0DEF7
S11308908EE492E042DE60E08CE0AADE80911A02EF
S11308A090911B0263E070E047DE61E080E0A0DE2F
S11308B0F801808162E070E090E03EDE61E083E078
S11308C097DEF801818162E070E090E035DE61E05E
S11308D086E08EDEF801828162E070E090E02CDE3A
S11308E061E089E085DEF801838162E070E090E0F8
S11308F023DE1092160262CFF701408260E081E0AD
S1130900B2DD80911A0290911B02893B914088F4D8
S113091080911A0290911B028D37914060F480916E
S11309201A0290911B028B3F910550F4C22CD32CD8
S11309300CC063010AC06894CC24C1F8D12C05C052
S11309400F2EF3E0CF2ED12CF02DF601E658FD4FFB
S113095080818F5F8083CE01079659DEEF81F88511
S1130960C082AE01495F5F4FBE016B5F7F4FCE0116
S113097003965BDE60E080E03BDE8AE592E0CDDD5D
S113098060E08CE035DE80911A0290911B0263E0F6
S113099070E0D2DD61E080E02BDEF801808162E06E
S11309A070E090E0C9DD61E083E022DEF80181813E
S11309B062E070E090E0C0DD61E086E019DEF801FD
S11309C0828162E070E090E0B7DD61E089E010DEF2
S11309D0F801838162E070E090E0AEDDB0921B022A
S11309E0A0921A0210921602E9CE80EF88B980E034
S11309F090E0AA960FB6F894DEBF0FBECDBFDF918C
S1130A00CF911F910F91FF90EF90DF90CF90BF9007
S1130A10AF909F908F907F906F905F904F903F909A
S1130A202F9008951F920F920FB60F9211248F9357
S1130A301092170280911702837085B982E0809327
S1130A401602E09A8F910F900FBE0F901F90189589
S1130A501F920F920FB60F9211240BB60F922F9381
S1130A603F934F935F936F937F938F939F93AF9332
S1130A70BF93EF93FF9360E081E0F5DC86E692E0BC
S1130A804CDD84E190E0DED01092170280911702D1
S1130A90837085B94A99FECF84E190E0D3D04A9B14
S1130AA0FECF60E081E0DFDC84E190E0CBD04A99C6
S1130AB0FECF84E190E0C6D080911602823039F0F6
S1130AC082E08093170280911702837085B9E29ABD
S1130AD0FF91EF91BF91AF919F918F917F916F9112
S1130AE05F914F913F912F910F900BBE0F900FBECE
S1130AF00F901F9018951F920F920FB60F9211240A
S1130B000BB60F922F933F934F935F936F937F9303
S1130B108F939F93AF93BF93EF93FF9384E190E000
S1130B2091D0659B04C081E08093160203C084E0E9
S1130B3080931602FF91EF91BF91AF919F918F9196
S1130B407F916F915F914F913F912F910F900BBEC9
S1130B500F900FBE0F901F9018951F920F920FB613
S1130B600F9211242F933F934F935F936F938F931F
S1130B709F9340911A0250911B028091780090E05B
S1130B8090931B0280931A022091790080911A029B
S1130B9090911B0261E0211101C060E020E030E08F
S1130BA0362F822B932B90931B0280931A028091F1
S1130BB01A0290911B028417950720F050931B0290
S1130BC040931A0281E090E09093190280931802F6
S1130BD09F918F916F915F914F913F912F910F90C2
S1130BE00FBE0F901F9018951F920F920FB60F9281
S1130BF011248F9380EF80930B018F910F900FBE80
S1130C000F901F90189584B5836084BD85B5877F48
S1130C1085BD84B5806884BD84B58F7B84BD85B56E
S1130C20826085BD8FE787BD279A089587BD0895A3
S1130C30E1E6F0E080E8808381E0808382E08093D5
S1130C4081000895AC01E1E8F0E090819860908320
S1130C5088EE93E090938900809388001092850039
S1130C6010928400B19A20E030E005C0B19BFECF21
S1130C70B19A2F5F3F4F241735071CF4B19BF6CF71
S1130C80F7CF089504D06894B1118DC0089570D041
S1130C9088F09F5790F0B92F9927B751A0F0D1F061
S1130CA0660F771F881F991F1AF0BA95C9F712C0EB
S1130CB0B13081F077D0B1E0089574C0672F782FF8
S1130CC08827B85F39F0B93FCCF386957795679557
S1130CD0B395D9F73EF490958095709561957F4FC3
S1130CE08F4F9F4F0895E89409C097FB3EF4909569
S1130CF08095709561957F4F8F4F9F4F9923A9F0F1
S1130D00F92F96E9BB279395F6958795779567957F
S1130D10B795F111F8CFFAF4BB0F11F460FF1BC0C3
S1130D206F5F7F4F8F4F9F4F16C0882311F096E956
S1130D3011C0772321F09EE8872F762F05C0662304
S1130D4071F096E8862F70E060E02AF09A95660FBD
S1130D50771F881FDAF7880F9695879597F9089576
S1130D6057FD9058440F551F59F05F3F71F0479558
S1130D70880F97FB991F61F09F3F79F0879508953D
S1130D80121613061406551FF2CF4695F1DF08C05C
S1130D90161617061806991FF1CF86957105610579
S1130DA008940895E894BB2766277727CB0197F921
S1130DB008950BD078C069D028F06ED018F0952330
S1130DC009F05AC05FC01124EECFCADFA0F3959F8B
S1130DD0D1F3950F50E0551F629FF001729FBB271E
S1130DE0F00DB11D639FAA27F00DB11DAA1F649FCA
S1130DF06627B00DA11D661F829F2227B00DA11D7D
S1130E00621F739FB00DA11D621F839FA00D611D02
S1130E10221F749F3327A00D611D231F849F600D23
S1130E20211D822F762F6A2F11249F5750408AF05C
S1130E30E1F088234AF0EE0FFF1FBB1F661F771FE8
S1130E40881F91505040A9F79E3F510570F014C07F
S1130E50AACF5F3FECF3983EDCF3869577956795D0
S1130E60B795F795E7959F5FC1F7FE2B880F911D06
S1130E709695879597F9089597F99F6780E870E0AC
S1130E8060E008959FEF80EC089500240A941616FC
S1130E90170618060906089500240A941216130664
S1130EA0140605060895092E0394000C11F48823F2
S1130EB052F0BB0F40F4BF2B11F460FF04C06F5F0E
S1130EC07F4F8F4F9F4F089597FB072E16F4009482
S1130ED006D077FD08D00BD007FC05D03EF49095E2
S1130EE081959F4F0895709561957F4F0895AA1B32
S1130EF0BB1B51E107C0AA1FBB1FA617B70710F001
S1130F00A61BB70B881F991F5A95A9F78095909532
S1130F10BC01CD0108950F931F93CF93DF938230CB
S1130F20910510F482E090E0E091AC03F091AD0300
S1130F3020E030E0A0E0B0E0309719F14081518129
S1130F400281138148175907C8F08417950769F47B
S1130F50109731F012960C93129713961C9327C096
S1130F600093AC031093AD0322C02115310519F091
S1130F704217530718F49A01BD01EF01DF01F8018C
S1130F80DBCF21153105F9F0281B390B243031054D
S1130F9080F48A819B816115710521F0FB019383A3
S1130FA0828304C09093AD038093AC03FE01329618
S1130FB044C0FE01E20FF31F819391932250310943
S1130FC0398328833AC02091AA033091AB03232BA1
S1130FD041F420910202309103023093AB03209339
S1130FE0AA0320910002309101022115310541F438
S1130FF02DB73EB74091040250910502241B350BD6
S1131000E091AA03F091AB03E217F307A0F42E1BBF
S11310103F0B2817390778F0AC014E5F5F4F241758
S1131020350748F04E0F5F1F5093AB034093AA035C
S11310308193919302C0E0E0F0E0CF01DF91CF9182
S11310401F910F910895CF93DF93009709F481C006
S1131050FC01329713821282A091AC03B091AD03CC
S1131060109781F420813181820F931F2091AA036C
S11310703091AB032817390751F5F093AB03E09394
S1131080AA0367C0ED0120E030E0CE17DF0740F48B
S11310904A815B819E0141155105F1F0EA01F5CFCA
S11310A0D383C28340815181840F951FC817D90708
S11310B059F488819981840F951F029691838083C6
S11310C08A819B81938382832115310529F4F093CE
S11310D0AD03E093AC033DC0E901FB83EA8349918E
S11310E05991C40FD51FEC17FD0761F480819181DC
S11310F0840F951F0296E9019983888382819381E5
S11311009B838A83E0E0F0E012968D919C91139783
S1131110009719F0FD01DC01F7CF8D919C91119797
S11311209D012E5F3F4F820F931F2091AA033091A0
S1131130AB032817390769F4309729F41092AD03EB
S11311401092AC0302C013821282B093AB03A0933B
S10F1150AA03DF91CF910895F894FFCF1B
S113115C0000AE03200002000300000001000000A8
S113116C01000200030002020100E7030000320048
S113117C6400CEFFCEFF0000320064006400CEFF9A
S113118C0000320032006400CEFF000035362E2DF4
S113119C50726F6772616D20536574757000424CA8
S11311AC20464520574920414C00424C20414C20BC
S11311BC57492046450050726F6772616D2050612B
S10911CC75736564000068
S9030000FC
