:1000000071C0000061C400006EC400009EC4000006
:1000100088C0000086C00000E9C4000082C0000063
:1000200080C000007EC000007CC000007AC00000DC
:1000300078C0000076C0000074C0000072C00000EC
:1000400070C000006EC000006CC000006AC00000FC
:1000500068C0000066C0000064C0000062C000000C
:1000600060C000005EC000005CC000005AC000001C
:1000700058C00000E7C4000054C0000052C0000097
:1000800050C000004EC000004CC000004AC000003C
:1000900048C0000046C0000044C0000042C000004C
:1000A00040C000003EC000003CC000003AC000005C
:1000B00038C0000036C0000034C0000032C000006C
:1000C00030C000002EC000002CC000002AC000007C
:1000D00028C0000026C0000024C0000022C000008C
:1000E00020C0000011241FBECFEFD1E2DEBFCDBF84
:1000F00000E00CBF13E0A0E0B2E0E6E0FEE000E0CC
:100100000BBF02C007900D92A639B107D9F723E0C3
:10011000A6E9B3E001C01D92A33AB207E1F714D2F9
:1001200070C6D9C4CF93DF934F9903C0C0E0D0E02D
:1001300017C0C0E0D0E0CE0101968370907899237B
:1001400024F401978C6F9F6F0196EC01FC01E85B32
:10015000FC4F808182B984E190E0EBD44F99EBCFE2
:1001600012B8CE01DF91CF9108956F927F928F9256
:100170009F92AF92BF92CF92DF92EF92FF920F9336
:100180001F93CF93DF937C013B01DB01CD91DC9189
:10019000992354F4F194E194F1080F2EF6E0CF2E58
:1001A000F2E0DF2EF02D06C00F2EFEE0CF2EF2E0A3
:1001B000DF2EF02D1E141F040CF06EC00F2EFEED6E
:1001C0008F2EF2E09F2EF02D06E112E0C701880F7E
:1001D000991FFC01E252FD4F5F01C130D10519F1B9
:1001E0001CF4209791F03AC0C230D10551F1C330D0
:1001F000D105A1F5D601ED91FC911197E85BFC4F7B
:10020000808182B9CD91DC9129C0D6011296ED9101
:10021000FC911397E85BFC4F808182B91296CD91D7
:10022000DC9113971BC0D6011496ED91FC911597A4
:10023000E85BFC4F808182B91496CD91DC911597D3
:100240000DC0D6011696ED91FC911797E85BFC4F17
:10025000808182B91696CD91DC911797B2E3EB16A7
:10026000F10429F4F4018081918163D40CC0F4E697
:10027000EF16F10429F4D8018D919C915AD403C052
:1002800084E190E056D4B2E08B0E911C0E5F1F4FBC
:100290008A149B0409F0A1CFF301D183C083DF91BD
:1002A000CF911F910F91FF90EF90DF90CF90BF9073
:1002B000AF909F908F907F906F90089587B1807FCF
:1002C00087B9459A469882E08A95F1F700C0479A27
:1002D00092E09A95F1F700C086B18295807F92E016
:1002E0009A95F1F700C0479895E09A95F1F70000CC
:1002F000479A92E09A95F1F700C096B192E09A95EC
:10030000F1F700C0479895E09A95F1F7000088232F
:10031000F4F2459887B18F6087B90895282F229508
:100320002F708F70611102C0469801C0469A92E00A
:100330009A95F1F700C0479A98B1907F922B98B99F
:1003400095E09A95F1F70000479895E09A95F1F7B6
:100350000000479A98B1907F892B88B985E08A95EB
:10036000F1F70000479895E09A95F1F70000A6CFC5
:100370000895CF93C82F2FEF86E791E0215080405A
:100380009040E1F700C0000087B18F6087B93F9AC5
:100390003E9A3D9A88B1807F88B94798459846989B
:1003A00000C000C00000479A419A25E02A95F1F765
:1003B0000000479885E08A95F1F700007FDF60E054
:1003C0008C2F8C60ABDF60E088E2A8DFCF910895CE
:1003D000CF93DF93EC018881882331F0219661E08F
:1003E0009DDF89918111FBCFDF91CF910895EF922D
:1003F000FF920F931F93CF93DF9300D01F921F9212
:10040000CDB7DEB77B01FE01319625E0DF011D92FD
:100410002A95E9F7009751F035962AE030E0B901C6
:10042000A8D38293862F972F0097C9F7BFEFEB16BB
:10043000FB0669F4898181111DC0FE01329600E03E
:1004400010E00F5F1F4F81918823D9F30FC005E0A3
:1004500010E00E191F090AC0F80181918F0161E0B7
:10046000805D5CDF0E151F05B9F711C00530110561
:100470001CF00DC000E010E081E090E08C0F9D1FAB
:10048000080F191F7E0196E0E90EF11CE5CF0F90D1
:100490000F900F900F900F90DF91CF911F910F91C0
:1004A000FF90EF900895883228F46111806460E035
:1004B000806834CF0895FC0111821082FB01118203
:1004C00010820895CF93DF93EC0184E090E078D31D
:1004D00099838883FC0113821282DF91CF91089562
:1004E000DB01ED91FC91309761F0DA018D919C91E7
:1004F0001197938382838D919C91FB0191838083DB
:100500000895DA012D913C911197FC0131832083EC
:100510008D919C91DB018D939C930895FC018081CA
:100520009181DA018D939C93A081B181109759F04C
:1005300012968D919C91139791838083892B19F446
:10054000FB01118210820895CF93DF93CDB7DEB700
:100550002A970FB6F894DEBF0FBECDBFE0D28FEF63
:1005600080930A0181B983E084B91DB802DF60E09D
:1005700081E0D4DE8CE493E02BDF84EF91E0D9D2EC
:100580008091430385B9F8948DB387628DBBE9E60A
:10059000F0E080818E638083EAE6F0E080818C6009
:1005A0008083EAE7F0E080818068808380818860D2
:1005B0008083ECE7F0E0808180648083789460E061
:1005C00081E0ACDEAFDD9A838983FC01E85BFC4F00
:1005D000808182B9BE016B5F7F4FCE0103966BDFD6
:1005E0001A86198618861F821092420383D28FE7DB
:1005F00094D282E0809343039091430385B1892B89
:1006000085B90F2EF3E03F2EF02DA32C0F2EFBE02B
:10061000CF2EDD24D394F02D6894BB24B5F80F2E93
:10062000F9E9EF2EF3E0FF2EF02D0F2E44244A942B
:10063000F3E05F2EF02D612C712C0F2EFAE78F2E38
:10064000912CF02D2D813E8180919603813029F4EB
:100650002115310511F4A0924203809142038230AA
:1006600019F128F4882351F0813061F0EDCF833007
:1006700009F471C0843009F4B2C0E6CF80E8F60115
:100680008083E0CF80E4F6018083809144039091E1
:1006900045030197B9F67092450360924403F40153
:1006A000808180648083CECFF601B082AE01475F47
:1006B0005F4FBE016B5F7F4FCE0103962FDFE0914E
:1006C0009703F0919803A985BA85EE0FFF1FEE0FEF
:1006D000FF1F8D919C91E80FF91FEE0FFF1FEB5844
:1006E000FC4F80819181892B81F1A09243038091FD
:1006F0004303837085B98BE490E01BD2E0919703AC
:10070000F0919803A985BA85EE0FFF1FEE0FFF1F2A
:100710008D919C91E80FF91FEE0FFF1FEB58FC4FD6
:10072000BE016F5F7F4F808191811FDDE985FA8572
:1007300080819181909398038093970382E08093C6
:10074000430380914303837085B989859A85D0D20C
:100750001092420377CF08E813E181E090E0E9D1FD
:100760008D819E81892B19F0109242036BCF01502D
:10077000110999F760E080E096DE8AE593E028DED3
:1007800061E080E090DE09E913E0F801808162E039
:1007900070E090E02CDE61E083E085DEF80181818D
:1007A00062E070E090E023DE61E086E07CDEF8014C
:1007B000828162E070E090E01ADE61E089E073DE41
:1007C000F801838162E070E090E011DE83E08093C5
:1007D000430380914303837085B9F894FECFF601FB
:1007E000B08260E081E09ADD60E08CE05CDE8091C8
:1007F00046039091470363E070E0F9DD8091460382
:1008000090914703863A934088F4809146039091F3
:1008100047038132934068F48091460390914703E7
:100820008139914040F401E010E007C002E010E09F
:1008300004C0830102C003E010E0F801E756FC4F5A
:1008400080818F5F8083CE0107963CDEEF81F88543
:1008500011830083AE01495F5F4FBE016B5F7F4F25
:10086000CE0103963DDE60E080E01DDE8AE593E088
:10087000AFDD61E080E017DEF701808162E070E0CB
:1008800090E0B5DD61E0832D0EDEF701818162E04D
:1008900070E090E0ACDD61E086E005DEF70182818A
:1008A00062E070E090E0A3DD61E089E0FCDDF7014B
:1008B000838162E070E090E09ADD509247034092BD
:1008C000460310924203BECE1F920F920FB60F92B4
:1008D00011248F9382E0809342038F910F900FBE7B
:1008E0000F901F9018951F920F920FB60F92112420
:1008F0000BB60F922F933F934F935F936F937F931A
:100900008F939F93AF93BF93EF93FF9384E190E016
:1009100010D14999FECF84E190E00BD181E0809322
:100920009603E19AFF91EF91BF91AF919F918F91C3
:100930007F916F915F914F913F912F910F900BBEDF
:100940000F900FBE0F901F9018951F920F920FB629
:100950000F9211240BB60F922F933F934F935F93F7
:100960006F937F938F939F93AF93BF93EF93FF9377
:1009700060E081E0D3DC86E693E02ADD83E08093CB
:10098000430380914303837085B94A99FECF84E184
:1009900090E0CFD04A9BFECF60E081E0BFDC84E1F5
:1009A00090E0C7D04A99FECF84E190E0C2D0809118
:1009B0004203823039F082E0809343038091430305
:1009C000837085B9E29AFF91EF91BF91AF919F91AA
:1009D0008F917F916F915F914F913F912F910F90E8
:1009E0000BBE0F900FBE0F901F9018951F920F9285
:1009F0000FB60F9211240BB60F922F933F934F9384
:100A00005F936F937F938F939F93AF93BF93EF9376
:100A1000FF9384E190E08DD081E080934203FF91C9
:100A2000EF91BF91AF919F918F917F916F915F9166
:100A30004F913F912F910F900BBE0F900FBE0F90D3
:100A40001F9018951F920F920FB60F9211242F939B
:100A50003F934F938F939F93209146033091470389
:100A60008091780090E090934703809346034091F3
:100A700079008091460390914703942B909347030C
:100A80008093460380914603909147038217930712
:100A900090F0309347032093460380919D039091FB
:100AA0009E03019690939E0380939D030A9718F0EE
:100AB00084E08093420381E090E09093450380932B
:100AC00044039F918F914F913F912F910F900FBEB3
:100AD0000F901F9018951F920F920FB60F9211242E
:100AE0008F9380EF80930B018F910F900FBE0F902B
:100AF0001F90189584B5836084BD85B5877F85BDBB
:100B000084B5806884BD84B58F7B84BD85B58260E3
:100B100085BD8FE787BD279A089587BD0895E1E6D3
:100B2000F0E080E8808381E0808382E08093810030
:100B30000895AC01E1E8F0E090819860908388EE40
:100B400093E0909389008093880010928500109222
:100B50008400B19A20E030E005C0B19BFECFB19A8D
:100B60002F5F3F4F241735071CF4B19BF6CFF7CF0B
:100B7000089597FB072E16F4009406D077FD08D051
:100B80000BD007FC05D03EF4909581959F4F0895BA
:100B9000709561957F4F0895AA1BBB1B51E107C05B
:100BA000AA1FBB1FA617B70710F0A61BB70B881FFD
:100BB000991F5A95A9F780959095BC01CD0108958C
:100BC0000F931F93CF93DF938230910510F482E04F
:100BD00090E0E091A103F091A20320E030E0A0E0DA
:100BE000B0E0309719F1408151810281138148179B
:100BF0005907C8F08417950769F4109731F01296D9
:100C00000C93129713961C9327C00093A103109383
:100C1000A20322C02115310519F04217530718F419
:100C20009A01BD01EF01DF01F801DBCF211531058C
:100C3000F9F0281B390B2430310580F48A819B811F
:100C40006115710521F0FB019383828304C09093A9
:100C5000A2038093A103FE01329644C0FE01E20F7D
:100C6000F31F8193919322503109398328833AC02D
:100C700020919F033091A003232B41F42091020285
:100C8000309103023093A00320939F032091000230
:100C9000309101022115310541F42DB73EB7409145
:100CA000040250910502241B350BE0919F03F09143
:100CB000A003E217F307A0F42E1B3F0B28173907F8
:100CC00078F0AC014E5F5F4F2417350748F04E0FA8
:100CD0005F1F5093A00340939F038193919302C0A1
:100CE000E0E0F0E0CF01DF91CF911F910F910895E7
:100CF000CF93DF93009709F481C0FC0132971382F0
:100D00001282A091A103B091A203109781F42081D7
:100D10003181820F931F20919F033091A0032817E8
:100D2000390751F5F093A003E0939F0367C0ED01ED
:100D300020E030E0CE17DF0740F44A815B819E015E
:100D400041155105F1F0EA01F5CFD383C28340810B
:100D50005181840F951FC817D90759F4888199814B
:100D6000840F951F0296918380838A819B81938350
:100D700082832115310529F4F093A203E093A103A6
:100D80003DC0E901FB83EA8349915991C40FD51F06
:100D9000EC17FD0761F480819181840F951F029605
:100DA000E90199838883828193819B838A83E0E030
:100DB000F0E012968D919C911397009719F0FD0128
:100DC000DC01F7CF8D919C9111979D012E5F3F4FD4
:100DD000820F931F20919F033091A003281739079A
:100DE00069F4309729F41092A2031092A10302C073
:100DF00013821282B093A003A0939F03DF91CF913F
:060E00000895F894FFCFF5
:100E06000000A30320000200030000000100000010
:100E16000100020003002E0013000F000C000B005F
:100E26000A0009000900080008000700070007007B
:100E3600070006000600060006000600060005007C
:100E46000500050005000500050005000500050074
:100E56000500050005000500050005000500050064
:100E66000500050005000500050005000500050054
:100E76000500050005000500050005000500050044
:100E86000500050005000500050005000500050034
:100E96000500050005000500050005000500050024
:100EA6000500050005000500050005000500050014
:100EB60005000500050006000600060006000600FF
:100EC60006000700070007000700080008000900E1
:100ED60009000A000B000D000F0013002E002E0063
:100EE60013000F000C000B000A000900090008009F
:100EF60008000700070007000700060006000600B6
:100F060006000600060005000500050005000500B0
:100F160005000500050005000500060006000600A0
:100F26000600060006000700070007000700080085
:100F36000800090009000A000B000D000F0013004D
:100F46002E0002020100FF0335362E2D50726F6708
:100F560072616D20536574757000424C20414C20BF
:100F660057492046450050726F6772616D20506187
:100F76007573656400000032006400CEFFCEFF008A
:100F860000320064006400CEFF00003200320064CC
:060F960000CEFF00000088
:00000001FF
