:1000000071C000008EC000008CC000009DC10000C7
:1000100088C0000086C00000ABC1000082C00000A4
:1000200080C000007EC000007CC000007AC00000DC
:1000300078C0000076C0000074C0000072C00000EC
:1000400070C000006EC000006CC000006AC00000FC
:1000500068C0000066C0000064C0000062C000000C
:1000600060C000005EC000005CC000005AC000001C
:1000700058C00000AFC1000054C0000052C00000D2
:1000800050C000004EC000004CC000004AC000003C
:1000900048C0000046C0000044C0000042C000004C
:1000A00040C000003EC000003CC000003AC000005C
:1000B00038C0000036C0000034C0000032C000006C
:1000C00030C000002EC000002CC000002AC000007C
:1000D00028C0000026C0000024C0000022C000008C
:1000E00020C0000011241FBECFEFD1E2DEBFCDBF84
:1000F00000E00CBF12E0A0E0B2E0E2E0F5E000E0DA
:100100000BBF02C007900D92AE32B107D9F722E0C3
:10011000AEE2B2E001C01D92A233B207E1F7A3D074
:10012000EEC19FC187B1807F87B9459A469882E02A
:100130008A95F1F700C0479A92E09A95F1F700C0CE
:1001400086B18295807F92E09A95F1F700C047983A
:1001500095E09A95F1F70000479A92E09A95F1F7A9
:1001600000C096B192E09A95F1F700C0479895E0EB
:100170009A95F1F700008823F4F2459887B18F60D3
:1001800087B90895282F22952F708F70611102C0B2
:10019000469801C0469A92E09A95F1F700C0479AB6
:1001A00098B1907F922B98B995E09A95F1F700005D
:1001B000479895E09A95F1F70000479A98B1907F9B
:1001C000892B88B985E08A95F1F70000479895E07A
:1001D0009A95F1F70000A6CF0895CF93C82F2FEF7F
:1001E00086E791E0215080409040E1F700C0000098
:1001F00087B18F6087B93F9A3E9A3D9A88B1807FD8
:1002000088B947984598469800C000C00000479AB2
:10021000419A25E02A95F1F70000479885E08A95F4
:10022000F1F700007FDF60E08C2F8C60ABDF60E0D7
:1002300088E2A8DFCF910895CF93DF93EC01888106
:10024000882331F0219661E09DDF89918111FBCFF8
:10025000DF91CF910895883228F46111806460E0C5
:10026000806890CF089521D18FEF80930A0183E0B9
:1002700084B91DB880912F028295880F880F807CE9
:1002800080930B0183E0A9DF60E081E07BDF82E007
:1002900092E0D2DF84EF91E012D160E081E072DF82
:1002A00080E192E0C9DF80ED97E009D160E081E074
:1002B00069DF88E192E0C0DF61E080E0CCDF83E2CB
:1002C00092E0BADF80912F0285B9F8948DB38462F1
:1002D0008DBBE9E6F0E0808180628083EAE6F0E0B1
:1002E000808184608083EAE7F0E080818068808399
:1002F000808188608083ECE7F0E080818064808387
:100300007894BED086E6CFD028E0EBE0F1E090E430
:1003100088B1806F88B980912E02833061F084307B
:1003200071F08130A9F790834091300250913102F1
:1003300010922E02EDCF28B910922E02E9CF80EF55
:1003400088B980E090E008951F920F920FB60F9247
:1003500011248F939F9387EE93E0909301028093F3
:1003600000029F918F910F900FBE0F901F901895D4
:100370001F920F920FB60F9211240BB60F922F936C
:100380003F934F935F936F937F938F939F93AF931D
:10039000BF93EF93FF9384E190E091D0659B04C0FD
:1003A00081E080932E0203C082E080932E02FF91B1
:1003B000EF91BF91AF919F918F917F916F915F91DD
:1003C0004F913F912F910F900BBE0F900FBE0F904A
:1003D0001F9018951F920F920FB60F9211242F9312
:1003E0003F934F935F936F938F939F93409100023E
:1003F000509101028091780090E0909301028093E7
:10040000000220917900809100029091010261E048
:10041000211101C060E020E030E0362F822B932BC9
:10042000909301028093000280910002909101025A
:100430008417950720F0509301024093000281E059
:1004400090E090933102809330029F918F916F9151
:100450005F914F913F912F910F900FBE0F901F9082
:1004600018951F920F920FB60F9211248F9380EF61
:1004700080930B018F910F900FBE0F901F901895D6
:1004800084B5836084BD85B5877F85BD84B580686C
:1004900084BD84B58F7B84BD85B5826085BD8FE7C3
:1004A00087BD279A089587BD0895E1E6F0E080E8CA
:1004B000808381E0808382E0809381000895AC0195
:1004C000E1E8F0E090819860908388EE93E090936B
:1004D0008900809388001092850010928400B19A60
:1004E00020E030E005C0B19BFECFB19A2F5F3F4FB7
:1004F000241735071CF4B19BF6CFF7CF0895F89475
:02050000FFCF2B
:10050200C70150726F6772616D2053657475700018
:100512006C6F6164696E67004144432056616C757B
:0E052200653A004F70746963616C3A300000F6
:00000001FF
