S0150000546865207265616C206465616C2E7372656374
S113000071C000000EC400008CC000001FC40000BA
S113001088C0000086C0000068C4000082C00000E0
S113002080C000007EC000007CC000007AC00000D8
S113003078C0000076C0000074C0000072C00000E8
S113004070C000006EC000006CC000006AC00000F8
S113005068C0000066C0000064C0000062C0000008
S113006060C000005EC000005CC000005AC0000018
S113007058C000006CC4000054C0000052C000000E
S113008050C000004EC000004CC000004AC0000038
S113009048C0000046C0000044C0000042C0000048
S11300A040C000003EC000003CC000003AC0000058
S11300B038C0000036C0000034C0000032C0000068
S11300C030C000002EC000002CC000002AC0000078
S11300D028C0000026C0000024C0000022C0000088
S11300E020C0000011241FBECFEFD1E2DEBFCDBF80
S11300F000E00CBF12E0A0E0B2E0ECE0FDE000E0C4
S11301000BBF02C007900D92A833B107D9F722E0C4
S1130110A8E3B2E001C01D92A334B207E1F712D202
S1130120F3C55CC4FF920F931F93CF93DF934F9952
S113013003C0C0E0D0E01FC0C0E0D0E00BE011E09D
S11301400F2EF0ECFF2EF02DF801F082FE01E55F9A
S1130150FD4F808182B9CE010196837090789923F6
S113016024F401978C6F9F6F0196EC018AE090E074
S113017063D44F99E9CF12B8CE01DF91CF911F918B
S11301800F91FF9008956F927F928F929F92AF92FA
S1130190BF92CF92DF92EF92FF920F931F93CF9370
S11301A0DF93CDB7DEB760970FB6F894DEBF0FBE0E
S11301B0CDBF5C018B0199232CF06E0189E0C80E40
S11301C0D11C03C0DE0111966D011A141B040CF03E
S11301D05DC0E12CF12C6894662462F8689477245D
S11301E073F8882483946894992491F80130110554
S11301F031F124F40115110599F03EC002301105C6
S113020069F103301105C1F5D601ED91FC91119707
S1130210E55FFD4F808182B988B80D911C912CC097
S1130220D6011296ED91FC911397E55FFD4F808105
S113023082B998B812960D911C9113971DC0D601DE
S11302401496ED91FC911597E55FFD4F808182B97D
S113025068B814960D911C9115970EC0D601169688
S1130260ED91FC911797E55FFD4F808182B978B8D5
S113027016960D911C91179784E190E0DDD3BFEFA2
S1130280EB1AFB0AAE14BF0409F0B0CFC8016096A4
S11302900FB6F894DEBF0FBECDBFDF91CF911F9193
S11302A00F91FF90EF90DF90CF90BF90AF909F9011
S11302B08F907F906F90089587B1807F87B9459A1A
S11302C0469882E08A95F1F700C0479A92E09A95A1
S11302D0F1F700C086B18295807F92E09A95F1F79C
S11302E000C0479895E09A95F1F70000479A92E08C
S11302F09A95F1F700C096B192E09A95F1F700C093
S1130300479895E09A95F1F700008823F4F2459810
S113031087B18F6087B90895282F22952F708F7029
S1130320611102C0469801C0469A92E09A95F1F78D
S113033000C0479A98B1907F922B98B995E09A950E
S1130340F1F70000479895E09A95F1F70000479A75
S113035098B1907F892B88B985E08A95F1F70000E0
S1130360479895E09A95F1F70000A6CF0895CF93AA
S1130370C82F2FEF86E791E0215080409040E1F7AD
S113038000C0000087B18F6087B93F9A3E9A3D9ABA
S113039088B1807F88B947984598469800C000C0C6
S11303A00000479A419A25E02A95F1F70000479802
S11303B085E08A95F1F700007FDF60E08C2F8C6088
S11303C0ABDF60E088E2A8DFCF910895CF93DF939D
S11303D0EC018881882331F0219661E09DDF8991C9
S11303E08111FBCFDF91CF910895EF92FF920F938C
S11303F01F93CF93DF9300D01F921F92CDB7DEB728
S11304007B01FE01319625E0DF011D922A95E9F773
S1130410009751F035962AE030E0B9012DD382934C
S1130420862F972F0097C9F7BFEFEB16FB0669F4E9
S1130430898181111DC0FE01329600E010E00F5F3A
S11304401F4F81918823D9F30FC005E010E00E19E6
S11304501F090AC0F80181918F0161E0805D5CDFB2
S11304600E151F05B9F711C0053011051CF00DC09C
S113047000E010E081E090E08C0F9D1F080F191F31
S11304807E0196E0E90EF11CE5CF0F900F900F90DE
S11304900F900F90DF91CF911F910F91FF90EF90EC
S11304A00895883228F46111806460E0806834CF54
S11304B00895FC0111821082FB01118210820895BB
S11304C0CF93DF93EC0183E090E0FDD2998388839E
S11304D0FC0112821182DF91CF910895DB01ED912D
S11304E0FC91309761F0DA018D919C911197928380
S11304F081838D919C91FB01918380830895DA011E
S11305002D913C911197FC01318320838D919C9115
S1130510DB018D939C930895FC0180819181DA0124
S11305208D939C93A081B181109759F011968D9170
S11305309C91129791838083892B19F4FB0111827A
S1130540108208952F923F924F925F926F927F9202
S11305508F929F92AF92BF92CF92DF92EF92FF92CF
S11305600F931F93CF93DF93CDB7DEB728970FB6C2
S1130570F894DEBF0FBECDBF55D28FEF80930A0132
S113058081B983E084B91DB8809106028295880FF1
S1130590880F807C80930B0183E0E9DE60E081E0DA
S11305A0BBDE8FE092E012DF84EF91E045D28091D0
S11305B0060285B9F8948DB387628DBBE9E6F0E055
S11305C080818E638083EAE6F0E0808184608083AA
S11305D0EAE7F0E08081806880838081886080839E
S11305E0ECE7F0E0808180648083789460E081E0CF
S11305F093DE98DD90933E0280933D02E0913D02AC
S1130600F0913E02E55FFD4F808182B9BE016D5FCE
S11306107F4FCE0101964DDF18861F821E821D82F8
S1130620ECD186E6FDD19091060285B1892B85B97E
S11306300F2EFBE0EF2EFF24F394F02D08E312E0DD
S11306400F2EF7EEAF2EF3E0BF2EF02D212C312C20
S113065066246394712C6894442447F86894552460
S113066056F80F2EFAE78F2E912CF02D80913C0234
S1130670823001F128F4882349F0813051F0F6CF1B
S1130680833009F4B1C08430A9F1F0CFF70140827E
S1130690EDCFF701508280910702909108020197F3
S11306A029F73092080220920702F40180818064C5
S11306B08083DCCFAE01495F5F4FBE016D5F7F4F2A
S11306C0CE01019629DF60E081E026DEEF81F88526
S11306D08081662D772D90E088DE60913D027091D7
S11306E03E02862D972D4FDD8F81988584D21092FE
S11306F03C02BCCF20E2F701208360E081E00CDE05
S11307008091090290910A02893B914088F480917A
S1130710090290910A028D37914060F48091090298
S113072090910A028B3F910550F4C62CD72C0CC033
S113073061010AC06894CC24C1F8D12C05C00F2EE5
S1130740F3E0CF2ED12CF02DF601E85CFD4F808133
S11307508F5F8083CE010596B3DEED81FE81C0827A
S1130760AE014B5F5F4FBE016D5F7F4FCE010196BF
S1130770B5DE60E080E095DE8DE192E027DE60E0AA
S11307808CE08FDE8091090290910A0263E070E0B0
S11307902CDE61E080E085DEF801808162E070E0BB
S11307A090E023DE61E083E07CDEF801818162E099
S11307B070E090E01ADE61E086E073DEF801828189
S11307C062E070E090E011DE61E089E06ADEF80149
S11307D0838162E070E090E008DEB0920A02A092A9
S11307E0090210923C0242CF80EF88B980E090E089
S11307F028960FB6F894DEBF0FBECDBFDF91CF9120
S11308001F910F91FF90EF90DF90CF90BF90AF902A
S11308109F908F907F906F905F904F903F902F901C
S113082008951F920F920FB60F9211248F93109276
S1130830060280910602837085B982E080933C02AF
S11308408F910F900FBE0F901F9018951F920F92CB
S11308500FB60F9211240BB60F922F933F934F9321
S11308605F936F937F938F939F93AF93BF93EF9314
S1130870FF9360E081E050DD89E292E0A7DD84E14E
S113088090E0DAD01092060280910602837085B956
S11308904A99FECF84E190E0CFD04A9BFECF60E03E
S11308A081E03ADD84E190E0C7D04A99FECF84E14B
S11308B090E0C2D082E080930602809106028370A9
S11308C085B9E29AFF91EF91BF91AF919F918F917A
S11308D07F916F915F914F913F912F910F900BBE3C
S11308E00F900FBE0F901F9018951F920F920FB686
S11308F00F9211240BB60F922F933F934F935F9354
S11309006F937F938F939F93AF93BF93EF93FF93D3
S113091084E190E091D0659B04C081E080933C0227
S113092003C084E080933C02FF91EF91BF91AF91AB
S11309309F918F917F916F915F914F913F912F91F3
S11309400F900BBE0F900FBE0F901F9018951F9223
S11309500F920FB60F9211242F933F934F935F93EF
S11309606F938F939F934091090250910A02809153
S1130970780090E090930A02809309022091790014
S11309808091090290910A0261E0211101C060E0A6
S113099020E030E0362F822B932B90930A02809331
S11309A009028091090290910A028417950720F0A8
S11309B050930A024093090281E090E09093080268
S11309C0809307029F918F916F915F914F913F9117
S11309D02F910F900FBE0F901F9018951F920F929A
S11309E00FB60F9211248F9380EF80930B018F9198
S11309F00F900FBE0F901F90189584B5836084BD2F
S1130A0085B5877F85BD84B5806884BD84B58F7BBB
S1130A1084BD85B5826085BD8FE787BD279A08951B
S1130A2087BD0895E1E6F0E080E8808381E080837B
S1130A3082E0809381000895AC01E1E8F0E09081C8
S1130A409860908388EE93E0909389008093880067
S1130A501092850010928400B19A20E030E005C025
S1130A60B19BFECFB19A2F5F3F4F241735071CF47B
S1130A70B19BF6CFF7CF089597FB072E16F4009499
S1130A8006D077FD08D00BD007FC05D03EF4909536
S1130A9081959F4F0895709561957F4F0895AA1B86
S1130AA0BB1B51E107C0AA1FBB1FA617B70710F055
S1130AB0A61BB70B881F991F5A95A9F78095909587
S1130AC0BC01CD0108950F931F93CF93DF93823020
S1130AD0910510F482E090E0E0914102F09142022D
S1130AE020E030E0A0E0B0E0309719F1408151817E
S1130AF00281138148175907C8F08417950769F4D0
S1130B00109731F012960C93129713961C9327C0EA
S1130B10009341021093420222C02115310519F0BD
S1130B204217530718F49A01BD01EF01DF01F801E0
S1130B30DBCF21153105F9F0281B390B24303105A1
S1130B4080F48A819B816115710521F0FB019383F7
S1130B50828304C09093420280934102FE01329644
S1130B6044C0FE01E20FF31F819391932250310997
S1130B70398328833AC020913F0230914002232BCD
S1130B8041F42091020230910302309340022093F9
S1130B903F0220910002309101022115310541F4F8
S1130BA02DB73EB74091040250910502241B350B2A
S1130BB0E0913F02F0914002E217F307A0F42E1BEC
S1130BC03F0B2817390778F0AC014E5F5F4F2417AD
S1130BD0350748F04E0F5F1F5093400240933F0289
S1130BE08193919302C0E0E0F0E0CF01DF91CF91D7
S1130BF01F910F910895CF93DF93009709F481C05B
S1130C00FC01329713821282A0914102B0914202F8
S1130C10109781F420813181820F931F20913F022C
S1130C20309140022817390751F5F0934002E093C0
S1130C303F0267C0ED0120E030E0CE17DF0740F44B
S1130C404A815B819E0141155105F1F0EA01F5CF1E
S1130C50D383C28340815181840F951FC817D9075C
S1130C6059F488819981840F951F0296918380831A
S1130C708A819B81938382832115310529F4F09322
S1130C804202E09341023DC0E901FB83EA834991BA
S1130C905991C40FD51FEC17FD0761F48081918130
S1130CA0840F951F0296E901998388838281938139
S1130CB09B838A83E0E0F0E012968D919C911397D8
S1130CC0009719F0FD01DC01F7CF8D919C911197EC
S1130CD09D012E5F3F4F820F931F20913F02309161
S1130CE040022817390769F4309729F41092420218
S1130CF01092410202C013821282B0934002A09368
S10F0D003F02DF91CF910895F894FFCFDB
S1130D0C000043022000020100E7033006280550CE
S1130D1C726F6772616D20536574757000424C205C
S1130D2C574920464520414C0050726F6772616DE3
S10B0D3C205061757365640029
S9030000FC
