S01B000043616C6962726174696E672053656E736F72732E737265639C
S113000071C000008EC00000EDC1000024C20000D9
S113001088C0000086C0000032C2000082C0000018
S113002080C000007EC000007CC000007AC00000D8
S113003078C0000076C0000074C0000072C00000E8
S113004070C000006EC000006CC000006AC00000F8
S113005068C0000066C0000064C0000062C0000008
S113006060C000005EC000005CC000005AC0000018
S113007058C0000034C2000054C0000052C0000048
S113008050C000004EC000004CC000004AC0000038
S113009048C0000046C0000044C0000042C0000048
S11300A040C000003EC000003CC000003AC0000058
S11300B038C0000036C0000034C0000032C0000068
S11300C030C000002EC000002CC000002AC0000078
S11300D028C0000026C0000024C0000022C0000088
S11300E020C0000011241FBECFEFD1E2DEBFCDBF80
S11300F000E00CBF12E0A0E0B2E0ECE3F6E000E0C8
S11301000BBF02C007900D92AE30B107D9F722E0C1
S1130110AEE0B2E001C01D92A031B207E1F7FFD01A
S11301208BC26ECF87B1807F87B9459A469882E0AB
S11301308A95F1F700C0479A92E09A95F1F700C0CA
S113014086B18295807F92E09A95F1F700C0479836
S113015095E09A95F1F70000479A92E09A95F1F7A5
S113016000C096B192E09A95F1F700C0479895E0E7
S11301709A95F1F700008823F4F2459887B18F60CF
S113018087B90895282F22952F708F70611102C0AE
S1130190469801C0469A92E09A95F1F700C0479AB2
S11301A098B1907F922B98B995E09A95F1F7000059
S11301B0479895E09A95F1F70000479A98B1907F97
S11301C0892B88B985E08A95F1F70000479895E076
S11301D09A95F1F70000A6CF0895CF93C82F2FEF7B
S11301E086E791E0215080409040E1F700C0000094
S11301F087B18F6087B93F9A3E9A3D9A88B1807FD4
S113020088B947984598469800C000C00000479AAE
S1130210419A25E02A95F1F70000479885E08A95F0
S1130220F1F700007FDF60E08C2F8C60ABDF60E0D3
S113023088E2A8DFCF910895CF93DF93EC01888102
S1130240882331F0219661E09DDF89918111FBCFF4
S1130250DF91CF910895EF92FF920F931F93CF9365
S1130260DF9300D01F921F92CDB7DEB77B01FE0152
S1130270319625E0DF011D922A95E9F7009751F0A8
S113028035962AE030E0B901B0D18293862F972FBA
S11302900097C9F7BFEFEB16FB0669F4898181115A
S11302A01DC0FE01329600E010E00F5F1F4F8191E8
S11302B08823D9F30FC005E010E00E191F090AC006
S11302C0F80181918F0161E0805D5CDF0E151F05EF
S11302D0B9F711C0053011051CF00DC000E010E0A5
S11302E081E090E08C0F9D1F080F191F7E0196E09E
S11302F0E90EF11CE5CF0F900F900F900F900F9027
S1130300DF91CF911F910F91FF90EF900895883264
S113031028F46111806460E0806834CF08953BD193
S11303208FEF80930A0183E084B91DB880910002A5
S11303308295880F880F807C80930B0183E04DDFCA
S113034060E081E01FDF83E092E076DF90910002BD
S113035085B1892B85B9F8948DB386628DBBE9E6A6
S1130360F0E080818C638083EAE6F0E0808188603D
S11303708083CAE7D0E08881806888838881886028
S11303808883ECE7F0E08081806480837894EED009
S113039086E6FFD0888180648883CBE0D1E00AE7D9
S11303A010E08CB18072880F880F888380910E02D0
S11303B090910F02892BA9F360E08AE0A8DF809175
S11303C001029091020265E070E045DF10920F0295
S11303D010920E0284E190E0E8D0F80180818064FC
S11303E08083DFCF1F920F920FB60F9211240BB6AA
S11303F00F922F933F934F935F936F937F938F93BA
S11304009F93AF93BF93EF93FF9384E190E0CDD09C
S11304109091000282E0892780930002809100027B
S1130420837085B94999FECF84E190E0BED0E19A0A
S1130430FF91EF91BF91AF919F918F917F916F91B8
S11304405F914F913F912F910F900BBE0F900FBE74
S11304500F901F9018951F920F920FB60F921124B0
S11304608F939F9387EE93E090930202809301020F
S11304709F918F910F900FBE0F901F9018951F9210
S11304800F920FB60F9211240BB60F922F933F9336
S11304904F935F936F937F938F939F93AF93BF9388
S11304A0EF93FF9388EE93E080D087EE93E09093F0
S11304B0020280930102E59AFF91EF91BF91AF91FF
S11304C09F918F917F916F915F914F913F912F9168
S11304D00F900BBE0F900FBE0F901F9018951F9298
S11304E00F920FB60F9211242F933F934F935F9364
S11304F06F938F939F9340910102509102028091D8
S1130500780090E090930202809301022091790098
S1130510809101029091020261E0211101C060E02A
S113052020E030E0362F822B932B909302028093AD
S1130530010280910102909102028417950720F034
S1130540509302024093010281E090E090930F02E5
S113055080930E029F918F916F915F914F913F9184
S11305602F910F900FBE0F901F90189584B5836044
S113057084BD85B5877F85BD84B5806884BD84B519
S11305808F7B84BD85B5826085BD8FE787BD279A43
S1130590089587BD0895E1E6F0E080E8808381E076
S11305A0808382E0809381000895AC01E1E8F0E06B
S11305B090819860908388EE93E090938900809373
S11305C088001092850010928400B19A20E030E0F7
S11305D005C0B19BFECFB19A2F5F3F4F241735075B
S11305E01CF4B19BF6CFF7CF089597FB072E16F4B2
S11305F0009406D077FD08D00BD007FC05D03EF45C
S1130600909581959F4F0895709561957F4F0895BA
S1130610AA1BBB1B51E107C0AA1FBB1FA617B70724
S113062010F0A61BB70B881F991F5A95A9F7809540
S10F06309095BC01CD010895F894FFCF13
S111063C02C7014144432056616C75653A00C3
S9030000FC
