:1000000071C000008EC000008CC000008AC00000DB
:1000100088C0000086C0000084C0000082C00000CC
:1000200080C000007EC000007CC000007AC00000DC
:1000300078C0000076C0000074C0000072C00000EC
:1000400070C000006EC000006CC000006AC00000FC
:1000500068C0000066C0000064C0000062C000000C
:1000600060C000005EC000005CC000005AC000001C
:1000700058C0000056C0000054C0000052C000002C
:1000800050C000004EC000004CC000004AC000003C
:1000900048C0000046C0000044C0000042C000004C
:1000A00040C000003EC000003CC000003AC000005C
:1000B00038C0000036C0000034C0000032C000006C
:1000C00030C000002EC000002CC000002AC000007C
:1000D00028C0000026C0000024C0000022C000008C
:1000E00020C0000011241FBECFEFD1E2DEBFCDBF84
:1000F00000E00CBF12E0A0E0B2E0EAEAF3E000E0CA
:100100000BBF02C007900D92A431B107D9F722E0CE
:10011000A4E1B2E001C01D92A531B207E1F7E9D038
:1001200042C16ECF84B5836084BD85B5877F85BDB0
:10013000EEE6F0E080818260808384B5806884BDD3
:1001400084B58F7B84BD85B5836085BD8FE787BD12
:10015000279A0895E1E6F0E080E8808381E08083DB
:1001600082E0809381000895AC01E1E8F0E09081A5
:100170009860908388EE93E0909389008093880044
:100180001092850010928400EFE6F0E0908192607A
:100190009083B19A20E030E005C0B19BFECFB19AC8
:1001A0002F5F3F4F241735071CF4B19BF6CFF7CFD5
:1001B00008958F929F92AF92BF92CF92DF92EF926B
:1001C000FF920F931F93CF93DF93CDB7DEB7609766
:1001D0000FB6F894DEBF0FBECDBF28E0E0E0F2E03E
:1001E000DE01119601900D922A95E1F728E0E8E0F2
:1001F000F2E0DE01199601900D922A95E1F7892B24
:1002000029F07E0189E0E80EF11C03C0DE011196A1
:100210007D01161617060CF059C06B0100E010E0C6
:100220006894882482F86894992491F86894AA24A0
:10023000A3F8BB24B39480911402813009F188F0B3
:10024000823069F18330C9F5D701ED91FC911197A6
:10025000E05FFD4F808182B9B8B88C918093140221
:100260002CC0D7011296ED91FC911397E05FFD4FE2
:10027000808182B998B812968C91809314021DC027
:10028000D7011496ED91FC911597E05FFD4F8081A9
:1002900082B988B814968C91809314020EC0D7014D
:1002A0001696ED91FC911797E05FFD4F808182B922
:1002B000A8B816968C918093140284E190E054DFE4
:1002C0000F5F1F4FC016D10609F0B5CF60960FB66D
:1002D000F894DEBF0FBECDBFDF91CF911F910F917C
:1002E000FF90EF90DF90CF90BF90AF909F908F9056
:1002F000089530DF17DF8FEF81B987B980930A0146
:1003000080EF80930B016AE570E080E090E051DFC0
:10031000CBE0D1E06894CC24C7F86894DD24D6F80B
:100320006894EE24E5F80F2EF0E9FF2EF02D00E59D
:1003300010E388EE93E018DFC88261E170E080E0AE
:1003400090E037DF88EE93E00FDFD88261E270E063
:1003500080E090E02EDF88EE93E006DFE88264E63E
:1003600070E080E090E025DF88EE93E0FDDEF8822B
:1003700061E170E081E090E01CDF88EE93E0F4DE64
:10038000088361E270E081E090E013DF88EE93E0A3
:10039000EBDE188364E670E081E090E00ADF88EE2F
:0A03A00093E0E2DEC6CFF894FFCF31
:1003AA000000010002000300020003000000010037
:0403BA0030062805DC
:00000001FF
